:020000040800F2
:1000000080AA0724AD020008119F00089350000841
:10001000B9020008F5130008F5B30008000000005D
:1000200000000000000000000000000091A3000894
:100030001514000800000000139F00088DA400089C
:10004000C7020008C7020008C7020008C70200086C
:10005000C7020008C7020008C7020008C70200085C
:10006000C7020008C7020008C7020008C70200084C
:10007000C7020008C7020008C7020008C70200083C
:10008000C7020008C7020008C7020008C70200082C
:10009000C7020008C7020008C7020008C70200081C
:1000A000C7020008C7020008C7020008C70200080C
:1000B000C702000829A5000865A50008C7020008B6
:1000C000C7020008C7020008C7020008C7020008EC
:1000D000C7020008A5B30008C7020008C70200084D
:1000E000C7020008C702000800000000C70200089D
:1000F000C7020008C7020008C7020008C7020008BC
:10010000C7020008C7020008C7020008C7020008AB
:10011000C7020008C7020008C7020008C70200089B
:10012000C7020008C7020008C7020008C70200088B
:10013000C7020008C7020008C7020008C70200087B
:1001400000000000000000000000000000000000AF
:10015000C7020008C7020008C7020008C70200085B
:10016000C7020008C7020008C7020008C70200084B
:10017000C7020008C7020008C7020008000000000C
:10018000C7020008C7020008C7020008C70200082B
:10019000C7020008C7020008C7020008C70200081B
:1001A000C7020008C7020008C7020008C70200080B
:1001B000C7020008C7020008C7020008C7020008FB
:1001C000C7020008C7020008C7020008C7020008EB
:1001D000C7020008C7020008C7020008C7020008DB
:1001E000C7020008C7020008C7020008C7020008CB
:1001F000C7020008C7020008C7020008C7020008BB
:10020000C7020008C7020008C7020008C7020008AA
:10021000C7020008C7020008C7020008C70200089A
:10022000C7020008C7020008C7020008000000005B
:10023000C7020008C702000800000000C70200084B
:10024000C7020008C7020008C7020008C70200086A
:10025000C7020008C7020008C7020008C70200085A
:10026000C7020008C7020008C7020008C70200084A
:10027000C7020008C7020008C7020008000000000B
:10028000C702000800000000C702000800000000CC
:1002900000000000C7020008DFF80CD000F0FEFFED
:1002A00000480047E5BD000880AA072406488047AB
:1002B00006480047FEE7FEE7FEE7FEE7FEE7FEE74B
:1002C000FEE7FEE7FEE7FEE795A4000899020008B6
:1002D0009FED1A1AF5EE000A40EE010ABDEEE00AA3
:1002E000F5EEC00AF1EE10FA10EE100A38BF401E0B
:1002F00000EE100A9FED121A1249B8EEC00AF7EE8E
:10030000001A30EEC00A60EE010ABCEEE00A10EE00
:10031000100AC0F3080000EE100A01EB8000B8EEEE
:10032000400A90ED011A70EEC00A90ED000A71EEDD
:10033000E01A21EE800A00EE810A704783F9223E1E
:100340000000004410A80108B5EEC00AF1EE10FA52
:1003500007D2DFED1E0AB4EEE00AF1EE10FAA8BFF4
:100360007047DFED1B0AB5EEC00AF1EE10FA20EE81
:10037000200AFDEEC00A10EE900A38BF401E00EEC3
:10038000900A9FED141A1449F8EEE00AF7EE001AED
:1003900030EE600A60EE010ABCEEE00A10EE100AD0
:1003A000C0F3080000EE100A01EB8000B8EE400A2E
:1003B00090ED011A70EEC00A90ED000A71EEE01A9D
:1003C00021EE800A00EE810A70470000CD024CB495
:1003D00083F9223E0000004410A801089FED3E0A68
:1003E0005FEA920C59D000BFD0ED000A90ED011ADF
:1003F0000B1D60EEA00A083041EE010AF5EEC00ABE
:10040000F1EE10FAA6BFB1EEE01A81ED001A81ED0F
:10041000000AD0ED000A90ED011A00F1080160EE2B
:10042000A00A181D41EE010AF5EEC00AF1EE10FA1D
:10043000A6BFB1EEE01A83ED001A83ED000AD1EDFC
:10044000000A91ED011A031D60EEA00A083141EE89
:10045000010AF5EEC00AF1EE10FAA6BFB1EEE01AFD
:1004600080ED001A80ED000AD1ED000A91ED011A2D
:10047000081D60EEA00A191D001D41EE010AF5EEEF
:10048000C00AF1EE10FAA6BFB1EEE01A83ED001A31
:1004900083ED000ABCF1010CA6D112F0030208BFE3
:1004A000704700BFD0ED000A90ED011A08300B46EE
:1004B00060EEA00A091D41EE010AF5EEC00AF1EE58
:1004C00010FAA6BFB1EEE01A83ED001A83ED000A20
:1004D000521EE7D170470000000000002DE9F04FE8
:1004E00000264FEA910C35462DED048B82B0644610
:1004F000CDF804C006EB0C0909EB0C0808EB0C075F
:1005000000EBC60A00EBC808DAED000A98ED001A05
:1005100000EBC90900EBC70730EE810A70EEC12A73
:100520009AED013AD8ED014AD9ED011AD7ED013A19
:1005300099ED005A97ED002A73EE240A31EEA34A92
:1005400035EE021A33EE643A71EEE34A4FEA450B98
:1005500035EE422A0BEB050E30EE015A02EBCB0BC7
:1005600070EE845ADBED001ADBED013A30EE410A01
:1005700070EEC40A8AED005ACAED015A32EEA41A8E
:1005800032EEE44A02EBC50A73EE422A20EE216AFB
:1005900060EEA11A32EE033ADAED004A60EEA30AE9
:1005A0009AED012A60EE233A21EE240A62EEA44A73
:1005B00002EBCE0B62EE822A61EE026A9BED005ADC
:1005C000DBED015A30EE220A23EE052A74EEE62A0C
:1005D00024EE051A23EE253A76EE204A24EE254A2B
:1005E00071EEE31AC9ED004A71EE030AC9ED011A72
:1005F00032EE441A88ED000AC8ED012AC7ED000A60
:10060000641E87ED011A06F101061D447FF472AFE6
:10061000019C4FF6FF7505EA830B0094042C7CD9EE
:100620000027E0464FEA9C0CBA46ACF1010E7D0073
:10063000EC1902EBC70302EBC50502EBC40493ED12
:10064000005A93ED014AD5ED002AD5ED015AD4EDBB
:10065000004AD4ED013A5F444FEA0A0303EB0C056C
:1006600005EB0C0404EB0C0900EBC30600EBC4041F
:1006700096ED001A94ED002A00EBC50500EBC909C0
:1006800096ED013A94ED016AD5ED007A99ED007A84
:1006900071EE421A31EE022A33EE461A33EE066A42
:1006A00037EE873A95ED010AD9ED010A77EEC76A70
:1006B00072EE437A30EE607A30EE200A72EE038AF0
:1006C000434471EE870A31EEC77A71EE661A36EE50
:1006D000811A76EE406A76EE009A21EE852A20EEA7
:1006E000850A61EE841A20EE846A67EEA20A26EE7D
:1006F000A23A27EE249A21EE248AC6ED008A8B4284
:1007000066EEA56A67EEA57A21EE231A27EE237A14
:10071000C6ED019A30EE210A00E026E072EE461A9C
:1007200070EEA60A33EE672A39EE011AC5ED000A0B
:1007300085ED012A38EE473A84ED000AC4ED011A2E
:1007400089ED001A89ED013A88D30AF1010AF245D0
:100750007FF66DAF009B9B080093009C4FF6FF73E4
:1007600003EA8B0B042C3FF65BAF0199D0ED002A16
:1007700090ED041AD0ED010A90ED054A72EE811A4F
:10078000D0ED023A90ED063A72EEC12A30EE841AAC
:1007900090ED030A90ED072A70EEC40A33EE834A07
:1007A00073EEC33A30EE023A30EE420A31EE842A5A
:1007B00071EEC44A71EE031A31EE433A80ED002A1D
:1007C00032EE801AC0ED011A30EEE34AC0ED024A63
:1007D00072EEC02A80ED033A33EEA00A80ED041ACF
:1007E00080ED054AC0ED062A80ED070A491E00F19A
:1007F0002000BBD102B0BDEC048BBDE8F08F2DE929
:10080000F04F00264FEA910C35462DED068B82B055
:100810006446CDF804C000BF06EB0C0808EB0C09D9
:1008200009EB0C0700EBC80800EBC70700EBC60A92
:1008300000EBC909DAED000A99ED001ADAED015A68
:1008400099ED013A30EE815A98ED002AD8ED013A3F
:1008500030EEC11AD7ED002AD7ED014A75EE830AB2
:1008600072EE221A33EEA44A4FEA450B35EEC33A34
:100870000BEB050E72EE622A73EEE44A02EBCB0B31
:1008800030EE846A75EE215A9BED002ADBED013AC9
:1008900030EEC44A75EE611ACAED005A8AED016A5B
:1008A00071EE640A61EE826A24EE022A31EE241AA5
:1008B00024EE234A73EE224A02EBC50A61EEA33A04
:1008C00033EE623ADAED002ADAED015A02EBCE0B92
:1008D00060EEA21A64EEA22A64EEA54A9BED005ACD
:1008E0009BED016A60EEA55A61EE050A23EE055AFA
:1008F00023EE063A36EEC44A21EE061A32EE232AD9
:1009000071EEE41A72EEA52A88ED004A70EEC30A71
:1009100088ED012A35EE011AC9ED001AC9ED012A48
:10092000C7ED000A641E87ED011A06F101061D4499
:100930007FF472AF019C4FF6FF7505EA830B0094BC
:10094000042C7CD90027E0464FEA9C0CBA46ACF157
:10095000010E7D00EC1902EBC70302EBC50502EBAB
:10096000C404D3ED005A93ED015A95ED002AD5ED5C
:10097000014AD4ED002A94ED016A5F444FEA0A036C
:1009800003EB0C0505EB0C0404EB0C0900EBC306B0
:1009900000EBC40496ED007A94ED001A96ED014A3E
:1009A00094ED013A00EBC50500EBC90977EE413A39
:1009B000D5ED001AD9ED007A37EE011A34EE437AFC
:1009C00034EE033A31EEE74AD5ED010AD9ED016A7A
:1009D00071EEA71A37EE448A70EEE67A70EEA66AD8
:1009E00071EE218A28EE229A73EEE70A73EEA77A57
:1009F00077EE043A33EE26AA31EE617A33EE664A98
:100A000020EEA51A23EE853A63EEA51A60EE856AFC
:100A100067EE020A64EE023A67EEA29AC6ED008A19
:100A200043448B4224EE244A27EE247A28EE068A99
:100A300067EE867A86ED01AA31EE431A00E026E0E1
:100A400070EEC40A33EE873A71EEA61AC5ED000ABD
:100A500079EEC83A85ED013A39EE274A84ED001A5D
:100A6000C4ED011AC9ED003A89ED014A88D30AF1B3
:100A7000010AF2457FF66DAF009B9B080093009C36
:100A80004FF6FF7303EA8B0B042C3FF65BAF019923
:100A9000D0ED000AD0ED042A90ED012A90ED054A30
:100AA00070EEA23A90ED021AD0ED064A70EEE20A1C
:100AB00072EE042AD0ED031A90ED073A32EE442A82
:100AC00031EE244A31EE641A71EE834A71EEC31A94
:100AD00033EE843A73EEC43A32EEA44A72EEE42A5C
:100AE00070EEE14A70EEA11A72EE010A32EE415A3E
:100AF00023EE001A24EE002A23EE803A62EE802ACA
:100B000080ED001A64EE803A80ED012A60EE800AE2
:100B100080ED023A21EE804AC0ED032A65EE001A0C
:100B2000C0ED043AC0ED050A80ED064AC0ED071A93
:100B3000491E00F12000ABD102B0BDEC068BBDE830
:100B4000F08F70B5044680780D4601282188A3896E
:100B500062680ED02846FFF7C1FCE078012818BF74
:100B600070BDE28928462188A368BDE8704000F086
:100B700069B894ED040A2846FFF741FEEDE700004E
:100B800082700022C370B1F5807F234B01804360E7
:100B900023D004DC102934D0402928D005E0B1F559
:100BA000806F10D0B1F5805F03D04FF0FF32104658
:100BB00070471B4B01219FED190A836080ED040AE9
:100BC0008181C181F3E7174B042181819FED160AD2
:100BD0008360C18180ED040AE9E7144B1021818113
:100BE0009FED130A8360C18180ED040ADFE7114B9A
:100BF000402181819FED100A8360C18180ED040A4C
:100C0000D5E70E4B4FF4807181819FED0D0A836013
:100C1000C18180ED040ACAE710280108000080396C
:100C200010200108162001080000803A2E2001083B
:100C30000000803B8E2001080000803C0E2201084D
:100C40000000803D2DE9F0074FF0010C0CEB51093D
:100C50004FF0000C4FEA51086146A8F1020A2DE05E
:100C600061452BD200EBCC0400EBC105D4ED000AAA
:100C700095ED000AC5ED000A84ED000AD4ED010AE5
:100C80000CEB090695ED010A01EB0907C5ED010A18
:100C900000EBC60684ED010A00EBC707D6ED000A9B
:100CA00097ED000AC7ED000A86ED000AD6ED010AAD
:100CB00097ED010AC7ED010A86ED010AC44400EB75
:100CC000C10400EBCC0C94ED020ADCED000A891C97
:100CD000C4ED020A8CED000ADCED010A94ED030A72
:100CE000C4ED030A8CED010A89B2B3F800C0514586
:100CF00003EB4203B4D9BDE8F00770472DE9F04F8C
:100D00004FF0010C0CEB51094FF0000C4FEA510869
:100D10006146A8F1020A25E0614523D200EBC10635
:100D200000EBCC0501EB0907D6F800E00CEB090459
:100D3000D5F800B000EBC707C6F800B000EBC4045C
:100D4000C5F800E0D6F804E0D5F804B0C6F804B061
:100D5000C5F804E03D6826683E6025607D686668E9
:100D60007E606560C44400EBC10400EBCC0C891CC0
:100D7000A5685145DCF80060A660CCF80050E66834
:100D8000DCF80450E560CCF80460B3F800C003EB75
:100D90004203C1D9BDE8F08F2DE9F00F4F084FF0A5
:100DA000010C0CEB51084FF0000C7C0804BFBDE8AF
:100DB000F00F704700EB88050146002615E000BFE4
:100DC000BCEB460F11D950F82CB00CEB0809D1F848
:100DD00000A0C1F800B040F82CA050F829B0D5F818
:100DE00000A0C5F800B040F829A0BC44D1F8049098
:100DF00005F1080506F1010650F82CA0C1F804A081
:100E0000083140F82C90B3F800C0641E03EB420395
:100E1000D6D1BDE8F00F70472DE9F05F0546002000
:100E200092469B4688460646814640241BE028465B
:100E300041464746224600F069F853465A46C01AD2
:100E4000914110D311461846224600F050F82D1A51
:100E500067EB01084F4622460120002100F047F8C9
:100E600017EB00094E41201EA4F10104DFDC4846C7
:100E700031462A464346BDE8F09F40EA01039B07FE
:100E800003D009E008C9121F08C0042AFAD203E0FF
:100E900011F8013B00F8013B521EF9D27047D2B263
:100EA00001E000F8012B491EFBD270470022F6E753
:100EB00010B513460A4604461946FFF7F0FF2046D0
:100EC00010BD30B50B46014600202022012409E068
:100ED00021FA02F59D4205D303FA02F5491B04FAF3
:100EE00002F52844151EA2F10102F1DC30BD202AD2
:100EF00004DB203A00FA02F1002070479140C2F171
:100F0000200320FA03F3194390407047202A04DBA2
:100F1000203A21FA02F00021704721FA02F3D04072
:100F2000C2F1200291400843194670472DE9FE4F57
:100F3000804681EA0300C00F0C46009021F000417A
:100F400023F00045B8EB0200A94105D240462146F6
:100F500090461C460B46024623F00040104347D003
:100F6000270DC7F30A00C3F30A510290401A0190FB
:100F700040286BDAC3F3130040F4801B00989246BC
:100F800020B10023D2EB030A63EB0B0B0198594607
:100F9000C0F140025046FFF7AAFF06460D465046F4
:100FA0005946019A00F08CF910EB080061410024C9
:100FB00087EA115284EAE7731A4340D0009A62B379
:100FC000019A012A4FEA075215DC001B61EB02016E
:100FD0004FF0004202EA0752CDE90042001C41F501
:100FE000801132462B4600F08CF903B0BDE8F08F3B
:100FF00040462146F9E7001B61EB0201001C41F568
:10100000801300185B412018A2F5001747EB03017D
:1010100040EAD570B6196D4111E06D084FEA360609
:1010200045EAC0754FEA0752001B61EB0201001C44
:1010300041F5801149084FEA30000019514132460C
:101040002B4603B0BDE8F04F00F04CB900980122E8
:1010500040000023D0EB020263EBE07300982146CE
:101060004FEAE074B8EB000061EB0401E9E783F0BC
:1010700000435BE781F0004158E72DE9FE4F81EA2C
:10108000030404F0004421F0004100944FF0000BF1
:1010900023F0004350EA01045ED052EA03045BD01F
:1010A000C3F30A54C1F30A552C44A4F2F334019457
:1010B000A0FB0254C1F3130141F48011C3F31303E5
:1010C00043F4801301FB024400FB034E840A970A99
:1010D00044EA815447EA8357A4FB076802958D0AC6
:1010E00005FB07854FEA932C04FB0C542705029D52
:1010F0004FEA065847EA1637B5EB08056EEB070CC2
:10110000870E920E47EA811742EA8312A7FB02017B
:10111000B6EB0B0164EB00042B0D43EA0C335E18B5
:1011200044EB1C50DA465146E7FB0201C5F31304B9
:101130004FEA0B3343EA14534FEA0432019C43EA6B
:101140000603A4F10C040294009CCDE900B400F065
:10115000D8F803B0BDE8F08F00200146F9E72DE98B
:10116000F04D81EA030404F0004B21F000451446E1
:101170004FF0000A23F0004150EA050220D054EA63
:1011800001021DD0C5F30A570246C5F31303C1F38C
:101190001300C1F30A5640F4801543F48013A7EB03
:1011A0000608101BD64608F2FD3873EB050002D383
:1011B00008F1010801E092185B41B8F1000F03DA71
:1011C00000200146BDE8F08D00204FF48011064656
:1011D00084460EE0171B73EB050705D3121B63EB68
:1011E000050306434CEA010C49084FEA3000921807
:1011F0005B4150EA0107EDD152EA030012D082EAC6
:10120000040083EA0501084305D0101BAB4106D258
:101210000122002306E000224FF0004302E06FF0BD
:10122000010253101AEB06004CEB085110EB0A00B8
:1012300041EB0B01BDE8F04D00F054B8C1F30A5288
:10124000C1F3130140F2FF3341F480119A4202DAF4
:1012500000200146704740F233439A42A2F23342E3
:1012600002DC5242FFF752BEFFF741BE30B5041E0A
:1012700071F1000404DB4FF00044404264EB0101D3
:10128000141E73F1000405DB1C464FF0004352426C
:1012900063EB0403994208BF904230BD064C074DF2
:1012A00006E0E06840F0010394E807009847103436
:1012B000AC42F6D3FEF7F4FFDCB30108FCB301083F
:1012C000202A06DBCB17203A41FA02F043EAE0730A
:1012D00006E041FA02F3D040C2F1200291400843F7
:1012E0001946704710B5141E73F1000408DA401C4B
:1012F00041F1000192185B411A4301D120F0010035
:1013000010BD2DE9F04D92469B4611B1B1FA81F224
:1013100002E0B0FA80F220329046FFF7E8FD044682
:101320000F4640EA0A0041EA0B0153465A46084379
:1013300013D0114653EA010019D0C8F140025046BB
:10134000FFF7E4FD05460E46504659464246FFF774
:10135000CEFD084305D0012004E020463946BDE813
:10136000F08D0020054346EAE0762C4337430A9887
:101370006305E40AA0EB08000022FD0A44EA475492
:101380000A3002D500200146E9E70105101969413C
:10139000DDE9084500196941BDE8F04DA2E770B5E7
:1013A0008C1810F8015B15F0070301D110F8013B10
:1013B0002A1106D110F8012B03E010F8016B01F897
:1013C000016B5B1EF9D12B0705D40023521E0DD4EF
:1013D00001F8013BFAE710F8013BCB1A921C03E03D
:1013E00013F8015B01F8015B521EF9D5A142D8D375
:1013F000002070BD00BFFEE710B508F009FF08F03F
:10140000B9FE0348006840F004000149086010BDBF
:101410009CEF00E0704730B5034614460022DA68BE
:101420000022D1E9000540EA05200D8940EA054087
:101430000D7B40EA05600243DA60002030BD30B524
:101440000346144600229A680022D1E9000540EACA
:1014500005200D8940EA05400D7B40EA0560024306
:101460009A60002030BD000010B5024600231368CA
:1014700009480340D1E901042043CC6820430C69AA
:1014800020434C6940EA44208C6940EA44300343DD
:101490001360002010BD00008901F0FF70B5044604
:1014A0001D460023B5F5804F13D154F822300C4867
:1014B0000340D1E9000640EA06108E6840EA0620A3
:1014C0008E8940EA06408E693043034344F8223057
:1014D00003E06FF0704044F82200002070BD00006F
:1014E0000000F0CF10B502460023086852F8203003
:1014F0001B480340D1E901042043CC6820430C6918
:1015000020434C6920438C692043CC6920430C6AFA
:1015100020434C6A20438C6A2043CC6A20430C6BE6
:1015200020438C6B20434C6B20430343886808287E
:1015300001D143F04003086842F82030086BB0F551
:10154000801F05D1086818B110680C6B204310602B
:10155000086818B110684C6B20431060002010BD63
:101560008004C0FF30B5034614460022601C53F8C7
:10157000202002F04042D1E9000540EA05108D68C4
:1015800040EA05208D8940EA0545088A401E45EA63
:101590000055087D801E45EA00608D69284302439E
:1015A000601C43F82020186800F4801038B1586897
:1015B00020F47002088A401E42EA00525A6000205D
:1015C00030BD30B50246002300240868012816D03B
:1015D00013686FF30E03D1E901052843CD68284352
:1015E0000D6928434D6928438D692843CD692843F7
:1015F0000D6A28434D6A28430343136019E01368BA
:1016000023F4F843D1E9070528434D6A28430343EF
:1016100054686FF30E04D1E901052843CD682843CF
:101620000D6928434D6928438D692843044313609D
:101630005460002030BD0246506940EA41005061CC
:101640000020704718B5034600200090D1E900043F
:1016500020438C68641E40EA4410CC6840EA442071
:10166000009000981861002018BD000070B5034676
:10167000154600220024012D1FD09A6802F0704206
:101680000868401E4E68761E40EA06168868401EAE
:1016900046EA0026C868401E46EA0036088A401E10
:1016A00046EA0046888A401E46EA0056087E401EEA
:1016B00046EA006002439A6022E09A6811480240BC
:1016C000C868401E0603888A401E46EA005002434E
:1016D000DC6804F070440868401E4E68761E40EADC
:1016E00006168868401E46EA0026088A401E46EA1A
:1016F0000046087E401E46EA006004439A60DC60B3
:10170000002070BDFF0F0FFF38B504464FF0AA3020
:1017100000900949897901FB04F004236A460021FD
:1017200008F0D6FB044989796143481C04236A46C2
:10173000002108F0CDFB38BD803500242DE9FC47A1
:1017400004460D4600275DE04FF0000820E001A8A8
:1017500030490090B1F802904FEAE97109EB9171BC
:101760008B102C49897901FB04F02A46002108F0EE
:10177000E3F928494888C11700EB9171BDF80420AE
:10178000B2EBA10F00D007E008F101001FFA80F8CA
:10179000204880794045DADC00BF1E48807940450A
:1017A00002D10020BDE8FC87204607F037FF06463F
:1017B00026B1394618A009F01FFE21E0681CF8B1D7
:1017C0000020019016E01349B1F802904FEAE97148
:1017D00009EB91718B100F498979BDF8042004FB46
:1017E00001200022114608F041FBBDF80400401C16
:1017F00080B2019007488079BDF804108842E2DC8D
:10180000781C87B2032F9FDB214609A009F0F4FD65
:101810000120C7E7803500246572726F72206572FF
:1018200061736520626C6F636B3A25640D0A00007A
:1018300062616420626C6F636B20636865636B65D3
:10184000643A25640D0A000038B504460020009073
:101850000F49897901FB04F001236A46002108F051
:10186000B3F99DF80000FF2810D109498979614337
:10187000481C01236A46002108F0A6F99DF80000E3
:10188000FF2801D1002038BD0120FCE70220FAE743
:10189000803500242DE9FE4F81460F4692461D46B5
:1018A0000024002002908046019000263B48807969
:1018B000B9FBF0F839488079B9FBF0F100FB1190E1
:1018C000019000BF404600F0E1F8064633484089E9
:1018D000B04202D20120BDE8FE8F00243AE0019818
:1018E000844221D305B32D484088C01BA84205D2AD
:1018F0002A484088C01B1FFA80FB01E01FFA85FBC5
:10190000264ACDF800B0927906FB0241234A92792B
:1019100008FB024053463A4607F092FC029000272B
:10192000DA44A5EB0B050AE01C4A927906FB02415A
:101930001A4A927908FB024007F086FD029002984D
:1019400030B13046FFF7E0FE012000F029F8B9E79A
:10195000601C84B211488079A042C0DC0F488079B5
:10196000A04219D1304600F099FA404607F056FEE1
:1019700000240CE00948406930F81400404504D1C7
:101980000649496921F8146005E0601C84B20348E7
:101990004089A042EEDC00BF00209CE78035002497
:1019A000F8B505460026002406E04FF6FF703049E2
:1019B000496921F81400641C2D484089A042F4D8DC
:1019C00000202B498881002433E02949897901FBD3
:1019D00004F004236A46002108F0F6F89DF80000A0
:1019E000FF2809D145B1224989796143481C012367
:1019F0006A46002108F0E8F89DF80000FF2813D19E
:101A00009DF802009DF8031000EB0126184840895C
:101A1000B04203D91649496921F816401448808913
:101A2000401C1349888103E0214612A009F0E4FC20
:101A3000641C0F484089A042C7D800240BE00C4822
:101A4000406930F814000A494989884202DB084994
:101A5000CC8104E0641C06484089A042EFD800BF56
:101A60000348C089642801DA0220F8BD0020FCE7A1
:101A70008035002462616420626C6F636B20696E44
:101A80006465783A25640D0A0000000070B50546CB
:101A9000002418484089401E17490968884204D22A
:101AA00014484089401E1449086005F0010112489D
:101AB000006800F023F80446601C90B90D48408986
:101AC000401E0D49096888420BD90A484089401ECA
:101AD0000949086005F001010748006800F00EF8A8
:101AE0000446601C10B94FF0FF3070BD024804601E
:101AF0002046FAE78035002434000024F8B5054676
:101B00000E460020009000246C1C14E0601E00F0C3
:101B10000100B0420ED1611E094A927901FB02F028
:101B200004236A46002108F04FF80098401C08B9C9
:101B3000601EF8BD641E002CE8D1601EF9E70000AD
:101B400080350024F8B5002600202D498881002426
:101B500017E02046FFF778FE05468DB9204607F0CE
:101B60005DFD05463DB1214626A009F045FC204615
:101B7000FFF7CAFD04E022488089401C2049888183
:101B8000641C1F484089A042E3D81D48818921A0D8
:101B900009F032FC1A488089642801DA0120F8BD76
:101BA00017488089C0EB401000EB4000642190FB97
:101BB000F1F600200090002415E02046FFF744FED7
:101BC00005467DB90E49897901FB04F002236A4676
:101BD000194608F07DF90098401C00900098B0422A
:101BE00000D104E0641C06484089A042E5D800BF4B
:101BF0000120FFF7D5FE08B10220D0E70020CEE794
:101C00008035002442616420626C6F636B3A256406
:101C10000D0A0000676F6F645F626C6F636B6E75B7
:101C20006D3A25640D0A000010B507F04FFD08B1AC
:101C3000012010BD1F48406920B11E4841690020A5
:101C40000AF04CFB1B484089410000200AF058FB79
:101C5000184948610A4652895100164A5069FFF7EF
:101C600025F91448406908B90120E2E70120FFF78F
:101C700097FE044664B110A009F0BEFBFFF762FFB7
:101C80000446002C13D012A009F0B6FB0220D0E7C6
:101C90000848418913A009F0AFFB0648818917A0C5
:101CA00009F0AAFB0348C18919A009F0A5FB00208F
:101CB000BFE7000080350024666F726D6174206E8E
:101CC000616E6420666C6173682E2E2E0D0A000012
:101CD000666F726D6174206661696C6564210D0ABE
:101CE00000000000746F74616C20626C6F636B2085
:101CF0006E756D3A25640D0A00000000676F6F6411
:101D000020626C6F636B206E756D3A25640D0A005E
:101D100076616C696420626C6F636B206E756D3ADE
:101D200025640D0A00000000014600220648C08913
:101D3000884202D24FF6FF7070470348406930F87E
:101D400011201046F8E70000803500242DE9FF4FF0
:101D500083B014469A460026002500BF97E04E48FF
:101D6000408890FBF4F04C49897948430499294410
:101D7000B1FBF0F002900298FFF7D6FF8346464889
:101D80004189594503D8012007B0BDE8F08F42488A
:101D9000408890FBF4F040498979484304992944EC
:101DA000B1FBF0F200FB1210604301903A48418809
:101DB0000198B0FBF1F0384989790BFB01083648EE
:101DC00041880198B0FBF1F201FB120932484088CA
:101DD000A0EB0900B0FBF4F087B2AAEB0500B84213
:101DE00002D2AAEB050087B207FB04F083B21FFA08
:101DF00089F14046039A07F051FD0646032E39D17A
:101E000007FB04F083B21FFA89F14046039A07F0FA
:101E100045FD0646032E2DD107FB04F31FFA89F179
:101E20004046039AFFF736FD1B488079B8FBF0F077
:101E3000311F0090FFF782FC06467EB91648807974
:101E4000B8FBF0F000210090FFF778FC064612483E
:101E50008079B8FBF0F0009007F0E0FB4EB10E483F
:101E60008079B8FBF0F00090FFF74EFC0120FFF7FF
:101E700097FD0026042E00D100260EB1022083E734
:101E8000039804FB07000390781E05446D1C55451C
:101E9000FFF465AF002077E78035002438B50446AD
:101EA000CC20009000250649897901FB04F001232C
:101EB0006A46194608F00CF80546284638BD000069
:101EC000803500242DE9FF4F87B014469A464FF025
:101ED000000B0025681E029000BFA7E0564840880E
:101EE00090FBF4F054498979484308992944B1FB9F
:101EF000F0F005900598FFF717FF06464E48418918
:101F0000B14203D801200BB0BDE8F08F4A484088A9
:101F100090FBF4F048498979484308992944B1FB7A
:101F2000F0F200FB1210604303904348418803988D
:101F3000B0FBF1F04049897906FB010004903E486E
:101F400041880398B0FBF1F201FB12093A4840883E
:101F5000A0EB090080B20690BDF8180090FBF4F0E9
:101F600080B20690AAEB050087B2BDF81800874240
:101F700001DBBDF8187007FB04F806A81FFA89F109
:101F8000C8F38F034FF0FF320090049807F0D4FDA0
:101F90008346BBF1000F01D00220B4E7BDF8180062
:101FA000B0EB980F09D11FFA88F31FFA89F1079A4D
:101FB000049807F099FE834601E04FF0010BBBF156
:101FC000000F07D10298B04204D03046FFF766FFF9
:101FD00083460296BBF1000F22D01748807916493C
:101FE000498848430399401AB0FBF4F080B2069048
:101FF000AAEB050087B2BDF81800874201DBBDF8E7
:10200000187007FB04F81FFA89F14346079A0498F1
:10201000FFF740FC8346BBF1000F01D0032072E7BD
:10202000781E05440798404407906D1C5545FFF401
:1020300055AF002067E700008035002410B5044646
:102040000CB9012010BD94F83500022803D080207F
:1020500060650120F6E734492068884205D333499A
:102060002068884201D8012000E00020C0B104208F
:1020700084F835002C49206888420AD32B4920680F
:10208000884206D82068006820F0010021680860B6
:1020900048E02068006820F001002168086041E005
:1020A0002068006820F00E00216808601E49206842
:1020B00088420AD31D492068884206D820680068F3
:1020C00020F001002168086005E02068006820F029
:1020D000010021680860206E006820F48070216E85
:1020E000086094F85C100120884011490860D4E928
:1020F00019104860E06E40B1E06E006820F4807016
:10210000E16E0860D4E91C10486000BF002084F82C
:10211000340000BF012084F83500206D10B1204646
:10212000216D884700208DE710000240B80402406E
:10213000045402580348006840F001000149086057
:102140007047000020040058F8B502460B460021F5
:10215000002600240020824D00BFFCE0012707FA82
:1021600001F61F6807EA0604B4427CD15F68022FBB
:1021700002D05F68122F1AD14FEAD10C02F120076A
:1021800057F82C004F074FEAD76C0F2707FA0CF7C8
:10219000B8434FEA417C4FEADC6C1F6907FA0CF741
:1021A00038434FEAD10C02F1200747F82C001068A1
:1021B0004FEA410C032707FA0CF7B8431F7907F0E1
:1021C00003074FEA410C07FA0CF7384310605F68C9
:1021D000012F08D05F68022F05D05F68112F02D051
:1021E0005F68122F17D190684FEA410C032707FA56
:1021F0000CF7B8434FEA410CDF6807FA0CF7384395
:102200009060506801278F40B8431F79C7F30017CB
:102210008F4038435060D0684FEA410C032707FADB
:102220000CF7B8434FEA410C9F6807FA0CF73843A4
:10223000D0605F6807F08057B7F1805F95D100BF2D
:10224000484F3F6847F00207DFF818C1CCF800702C
:1022500067463F6807F00207009700BF00BF424F84
:102260004FEA910C00E075E057F82C008F074FEA19
:10227000177C0F2707FA0CF7B8433C4FBA4201D13D
:1022800000272DE03A4FBA4201D1012728E0394F0B
:10229000BA4201D1022723E0374FBA4201D10327C6
:1022A0001EE0364FBA4201D1042719E0344FBA423A
:1022B00001D1052714E0334FBA4201D106270FE0C0
:1022C000314FBA4201D107270AE0304FBA4201D15B
:1022D000082705E02E4FBA4201D1092700E00A275E
:1022E0004FEA817C4FEA1C7C07FA0CF738431E4FFB
:1022F0004FEA910C47F82C002868A0435F6807F468
:102300008037B7F5803F00D1204328606868A0433C
:102310005F6807F40037B7F5003F00D120436860DD
:102320004FF0B0473868A0435F6807F48017B7F5EF
:10233000801F00D120434FF0B04738607868A04339
:102340005F6807F40017B7F5001F00D120434FF076
:10235000B0477860491C1029FFF400AFF8BD0000B9
:1023600080000058F4440258080400580000025845
:102370000004025800080258000C025800100258CD
:102380000014025800180258001C0258002002587D
:1023900000240258024613690B400BB1012000E0F3
:1023A0000020704742694A40426170470AB1018388
:1023B00000E041837047000001480068704700005A
:1023C00018000024034800680349097808440149BB
:1023D00008607047180000242000002410B5032076
:1023E00000F052FB0F2000F007F808B1012010BDEB
:1023F00000F058FA0020FAE770B504460E4800785D
:102400004FF47A71B1FBF0F00C490968B1FBF0F5BB
:10241000284602F0C7FA08B1012070BD102C07D27F
:1024200000222146501E00F0F1FA0548046001E048
:102430000120F2E70020F0E720000024040000243F
:102440001C00002470B504460E46154600BF94F8E3
:10245000A000012801D1022070BD012084F8A00055
:1024600000BF022084F8A10005EB850101EBC50245
:1024700004F1380101EB820034223146FEF7FDFC05
:102480002A463146204606F08BFD0120216848622D
:1024900084F8A10000BF002084F8A00000BF00BFA6
:1024A000DAE7000070B50446002500260CB90120CB
:1024B00070BD94F8A10028B9002084F8A00020463F
:1024C00000F07EF8022084F8A1002068806920F0E6
:1024D000704021688861D4E901010843E16808433C
:1024E0002169084321688969084321688861206857
:1024F00080683249084021688860A08A0504206805
:102500008068A16929430843216888602068C06801
:102510002A4908402168C860A08B05042068C0686B
:10252000216A294308432168C8602068006923495B
:10253000084021680861A08C050420680069A16A30
:102540002943084321680861206840691B49084005
:1025500021684861A08D050420684069216B2943EA
:1025600008432168486194F83500050294F8360064
:1025700006042068C06A00F07F402168C86246EA0D
:10258000050094F8341008432168C96A084321689B
:10259000C8622068406B40F00600216848632068EC
:1025A000806940F00100216888610020C4F8A4001F
:1025B000012084F8A10000207AE7000000F800F074
:1025C00010B586B0044600BF4848006840F00800D7
:1025D000464908600846006800F00800009000BF07
:1025E00000BF00BF41481038006840F010003F496C
:1025F000103908600846006800F01000009000BF25
:1026000000BF00BF3948001F006840F00200374992
:10261000091F08600846006800F00200009000BF33
:1026200000BF00BF0846006840F020000860084670
:10263000006800F02000009000BF00BF00BF084607
:10264000006840F0400008600846006800F0400064
:10265000009000BF00BF00BF0846006840F0800047
:1026600008600846006800F08000009000BF00BFCE
:1026700000BF0846006840F48070086008460068A3
:1026800000F48070009000BF00BF20200190012066
:10269000029003900320049001A91548FFF754FD10
:1026A0004FF48060019002200290002003900320EC
:1026B00004900E20059001A90E48FFF745FD4FF448
:1026C0000C60019001A90C48FFF73EFD4FF47E40DD
:1026D000019001A90948FFF737FD40F2F76001902A
:1026E00001A90748FFF730FD06B010BDE4440258C9
:1026F000000402580014025800180258001C025826
:10270000002002582DE9F04104460E46174698462F
:1027100000BF94F8A000012802D10220BDE8F0819A
:10272000012084F8A00000BF022084F8A10008EB7B
:10273000880000EBC80104F1380000EB81052E6031
:10274000A86A30446860AF60E86A3844E86042468E
:102750002946204606F024FC01202168486284F8BE
:10276000A10000BF002084F8A00000BF00BFD5E793
:102770002DE9F04104460E461746984600BF94F8EE
:10278000A000012802D10220BDE8F081012084F8D8
:10279000A00000BF022084F8A10008EB880000EB35
:1027A000C80104F1380000EB8105286830446860F6
:1027B000A8683844E860AE62EF6242462946204687
:1027C00006F0EEFB01202168486284F8A10000BFFA
:1027D000002084F8A00000BF00BFD5E74178154A6B
:1027E00011600178F9B1121D41681160017B090780
:1027F000C27A41EA0261827A41EAC241427B41EAFD
:102800008241827B41EA4241C27B41EA0241427AF3
:1028100041EA0221027A41EA420102781143054A63
:102820000832116005E00021024A121D1160121DDC
:102830001160704798ED00E000BF00BF00BFBFF31C
:102840005F8F00BF00BF00BF0548006820F48030E4
:102850000349086000200249703108607047000099
:1028600024ED00E040F001010D4A11600C4970397F
:10287000096841F480310A4A703A116000BF00BF14
:1028800000BFBFF34F8F00BF00BF00BF00BF00BF3E
:1028900000BFBFF36F8F00BF00BF00BF70470000D5
:1028A00094ED00E07047000070B504460E461546F2
:1028B0000CB9012070BD94F8210028B9002084F8DB
:1028C0002000204600F022F8211D2068FEF7CCFDF4
:1028D0003146D4E90002FEF7B2FD2946D4E90002F0
:1028E000FEF799FD2068006840F004002168086048
:1028F0000548006840F0004003490860012084F862
:1029000021000020D6E700000040005210B586B03C
:10291000044600BF3148006840F480502F490860E9
:102920000846006800F48050009000BF00BF00BF60
:102930002A480C30006840F0080028490C31086033
:102940000846006800F00800009000BF00BF00BF0C
:102950000846006840F0100008600846006800F073
:102960001000009000BF00BF00BF0846006840F0A4
:10297000400008600846006800F04000009000BF7A
:1029800000BF40200190002002900120039003200E
:10299000049001A91248FFF7D7FB4FF40070019093
:1029A0000220029000200390032004900C20059048
:1029B00001A90C48FFF7C8FB4DF633000190002039
:1029C000039001A90648FFF7BFFB4FF4F0600190A8
:1029D00001A90548FFF7B8FB06B010BDD444025862
:1029E000000C025800180258001002580146084610
:1029F000002809DB00F01F0301229A4043099B00D5
:102A000003F1E023C3F8002100BF70472DE9F05F18
:102A100080460D46164608F013FD074639462A46FD
:102A2000334601F00700C0F1070ABAF1040F02D9DA
:102A30004FF0040A01E0C0F1070AD14600F1040A90
:102A4000BAF1070F02D24FF0000A01E0A0F1030A29
:102A5000D4464FF0010A0AFA09FAAAF1010A0AEA71
:102A6000020A0AFA0CFA4FF0010B0BFA0CFBABF15D
:102A7000010B0BEA030B4AEA0B042146404608F01F
:102A8000E7FCBDE8F09F000000BF00F00702064B26
:102A900019684FF6FF031940044B0B4343EA022128
:102AA000014B196000BF70470CED00E00000FA0513
:102AB00010B501F067F90949096801F470614FF434
:102AC000807292FAA2F2B2FA82F2D140044A515CC8
:102AD000C840044908600846006810BD1844025800
:102AE000E8D700080400002410B501F003F90749F5
:102AF000096801F07001102292FAA2F2B2FA82F291
:102B0000D140034A515CC84010BD00002044025827
:102B1000E8D7000870B501460022012000230024F8
:102B20009FED811AB0EE410A9FED7F1AF0EE410A47
:102B30007E4D2D6805F003027C4D2D68C5F30530F0
:102B40007A4D2D1D2D6805F01003784D14352D6834
:102B5000C5F3CC0515FB03F501EE105AB8EE411A8A
:102B6000B0EE410A22B1012A4DD0022A7DD169E09E
:102B70006E4D283D2D68C5F340152DB36B4D283D96
:102B80002D68C5F3C1066A4D25FA06F4B4FBF0F5CD
:102B900001EE105AF8EE411A9FED661A80EE012AF6
:102BA000624D10352D68C5F3080501EE105AB8EED8
:102BB000411A32EE011AB7EE002A31EE021A21EE66
:102BC000811AF0EE410A1DE0594DB5FBF0F501EE1A
:102BD000105AF8EE411A9FED571A80EE012A534D14
:102BE00010352D68C5F3080501EE105AB8EE411AEC
:102BF00032EE011AB7EE002A31EE021A21EE811AE6
:102C0000F0EE410A5EE04C4DB5FBF0F501EE105AD6
:102C1000B8EE412A9FED471AC0EE011A434D103518
:102C20002D68C5F3080501EE105AB8EE411A31EED1
:102C3000811AF7EE001A31EE211A22EE011AF0EE97
:102C4000410A3FE03D4DB5FBF0F501EE105AF8EEBC
:102C5000411A9FED381A80EE012A344D10352D6847
:102C6000C5F3080501EE105A00E00CE0B8EE411A79
:102C700032EE011AB7EE002A31EE021A21EE811A65
:102C8000F0EE410A1EE02C4DB5FBF0F501EE105AB6
:102C9000B8EE412A9FED271AC0EE011A234D1035D8
:102CA0002D68C5F3080501EE105AB8EE411A31EE51
:102CB000811AF7EE001A31EE211A22EE011AF0EE17
:102CC000410A00BF00BF194D10352D68C5F34625D8
:102CD0006D1C01EE105AB8EE411AC0EE811ABCEE1E
:102CE000E11A81ED001A114D10352D68C5F3064526
:102CF0006D1C01EE105AB8EE411AC0EE811ABCEEFE
:102D0000E11A81ED011A094D10352D68C5F30665EC
:102D10006D1C01EE105AB8EE411AC0EE811ABCEEDD
:102D2000E11A81ED021A70BD00000000284402582B
:102D30000090D0030000004600093D0040787D016E
:102D400070B5014600220120002300249FED811A66
:102D5000B0EE410A9FED7F1AF0EE410A7E4D2D68DC
:102D600005F003027C4D2D68C5F305507A4D2D1DED
:102D70002D6805F48073784D1C352D68C5F3CC059E
:102D800015FB03F501EE105AB8EE411AB0EE410AF8
:102D900022B1012A4DD0022A7DD169E06E4D283D35
:102DA0002D68C5F340152DB36B4D283D2D68C5F337
:102DB000C1066A4D25FA06F4B4FBF0F501EE105A8F
:102DC000F8EE411A9FED661A80EE012A624D183521
:102DD0002D68C5F3080501EE105AB8EE411A32EE1F
:102DE000011AB7EE002A31EE021A21EE811AF0EE36
:102DF000410A1DE0594DB5FBF0F501EE105AF8EE11
:102E0000411A9FED571A80EE012A534D18352D684F
:102E1000C5F3080501EE105AB8EE411A32EE011A58
:102E2000B7EE002A31EE021A21EE811AF0EE410AC5
:102E30005EE04C4DB5FBF0F501EE105AB8EE412ABC
:102E40009FED471AC0EE011A434D18352D68C5F3A2
:102E5000080501EE105AB8EE411A31EE811AF7EE6C
:102E6000001A31EE211A22EE011AF0EE410A3FE07B
:102E70003D4DB5FBF0F501EE105AF8EE411A9FED0D
:102E8000381A80EE012A344D18352D68C5F308052F
:102E900001EE105A00E00CE0B8EE411A32EE011AD1
:102EA000B7EE002A31EE021A21EE811AF0EE410A45
:102EB0001EE02C4DB5FBF0F501EE105AB8EE412A9C
:102EC0009FED271AC0EE011A234D18352D68C5F362
:102ED000080501EE105AB8EE411A31EE811AF7EEEC
:102EE000001A31EE211A22EE011AF0EE410A00BF5B
:102EF00000BF194D18352D68C5F346256D1C01EE30
:102F0000105AB8EE411AC0EE811ABCEEE11A81EDFA
:102F1000001A114D18352D68C5F306456D1C01EEDC
:102F2000105AB8EE411AC0EE811ABCEEE11A81EDDA
:102F3000011A094D18352D68C5F306656D1C01EEA3
:102F4000105AB8EE411AC0EE811ABCEEE11A81EDBA
:102F5000021A70BD00000000284402580090D003FF
:102F60000000004600093D0040787D012DE9F04158
:102F7000044600250026206800F00060B0F1006FD4
:102F800030D1606E48B1B0F5801F0DD0B0F5001F94
:102F900010D0B0F5401F15D113E0F948006840F497
:102FA0000030F74908600FE00221201D06F0B2FF53
:102FB000054609E0022104F1240007F043F8054624
:102FC00002E001E0012500BF00BF55B9EC48243004
:102FD000006820F44010616E0843E949243108601C
:102FE00000E02E43208800F48070B0F5807F2DD162
:102FF000606D05281AD2DFE800F0030A10171800E8
:10300000DF48006840F40030DD49086010E000212E
:10301000201D06F07FFF05460AE0002104F1240090
:1030200007F010F8054603E002E001E0012500BFCB
:1030300000BF55B9D2482430006820F00700616D08
:103040000843CF492431086000E02E43208800F473
:103050000070B0F5007F33D1A06D802817D003DC5D
:1030600040B140281CD10CE0C02817D0B0F5807FBB
:1030700016D114E0C248006840F40030C04908602E
:1030800010E00021201D06F045FF05460AE0002162
:1030900004F1240006F0D6FF054603E002E001E05B
:1030A000012500BF00BF55B9B5482430006820F4A1
:1030B000E070A16D0843B2492431086000E02E435E
:1030C000208800F48060B0F5806F38D1D4F8A40077
:1030D000B0F5800F19D004DC50B1B0F5001F1DD140
:1030E0000DE0B0F5C00F17D0B0F5000F16D114E009
:1030F000A348006840F40030A149086010E00021B6
:10310000201D06F007FF05460AE0002104F1240017
:1031100006F098FF054603E002E001E0012500BF4C
:1031200000BF5DB996482C30006820F46000D4F8E8
:10313000A410084392492C31086000E02E432088F7
:1031400000F40060B0F5006F38D1D4F8A800B0F1F9
:10315000007F19D004DC50B1B0F1807F1DD10DE0AB
:10316000B0F1407F17D0B0F1806F16D114E08448E1
:10317000006840F400308249086010E00021201D02
:1031800006F0C8FE05460AE0002104F1240006F01E
:1031900059FF054603E002E001E0012500BF00BF42
:1031A0005DB977482C30006820F0E060D4F8A810B2
:1031B000084373492C31086000E02E43206800F07A
:1031C0000070B0F1007F27D1A06CA0B1102804D00E
:1031D000202809D030280FD10CE06948006840F45D
:1031E00000306749086009E00221201D06F092FEC8
:1031F000054603E002E001E0012500BF00BF55B92C
:103200005F482030006820F03000A16C08435C4922
:103210002031086000E02E43208800F48050B0F593
:10322000805F36D1E06DB0F5005F19D004DC50B19D
:10323000B0F5805F1DD10DE0B0F5405F17D0B0F55F
:10324000804F16D114E04E48006840F400304C49DD
:10325000086010E00021201D06F05CFE05460AE033
:10326000002104F1240006F0EDFE054603E002E033
:1032700001E0012500BF00BF55B941482430006876
:1032800020F4E040E16D08433D492431086000E04E
:103290002E43208800F40050B0F5005F34D1206E3A
:1032A000B0F5403F1DD007DC68B1B0F5803F0BD0D2
:1032B000B0F5003F18D10DE0B0F5802F12D0B0F579
:1032C000A02F11D10FE011E00121201D06F022FEF8
:1032D00005460BE0012104F1240006F0B3FE05468B
:1032E00004E003E002E001E0012500BF00BF55B9A2
:1032F00023482430006820F4E020216E0843204950
:103300002431086000E02E43208800F48040B0F5AE
:10331000804F38D1D4F8AC00B0F1405F1DD007DC4D
:1033200068B1B0F1805F0BD0B0F1005F18D10DE053
:10333000B0F1804F12D0B0F1A04F11D10FE011E0E9
:103340000121201D06F0E6FD05460BE0012104F1F8
:10335000240006F077FE054604E003E002E001E009
:10336000012500BF00BF6DB905482C30006820F072
:10337000E040D4F8AC10084301492C31086002E069
:103380002C4402582E43208800F40040B0F5004F32
:1033900026D1E06E98B1B0F1805F03D0B0F1005F4C
:1033A0000ED106E0FA48006840F40030F8490860A1
:1033B00008E00121201D06F0ADFD054602E001E018
:1033C000012500BF00BF55B9F1482430006820F046
:1033D0004050E16E0843EE492431086000E02E437E
:1033E000206800F08070B0F1807F27D1606CA0B1C0
:1033F000012804D0022809D003280FD10CE0E448AA
:10340000006840F40030E249086009E00221201D14
:1034100006F080FD054603E002E001E0012500BF63
:1034200000BF55B9DA482030006820F00300616C15
:103430000843D7492031086000E02E43206800F49B
:103440008000B0F5800F7DD1D248006840F48070D4
:10345000D0490860FEF7B0FF074606E0FEF7ACFF74
:10346000C01B642801D9032505E0CA48006800F4A0
:1034700080700028F2D000BF8DBBC5484430006882
:1034800000F44070B4F8B01001F44071884214D0D8
:10349000BF484430006820F44078BD48443000689C
:1034A00040F48030BA49443108600846006820F48E
:1034B000803008600846C0F80080D4F8B000B0F54D
:1034C000807F15D1FEF778FF074609E0FEF774FF0D
:1034D000C01B41F28831884202D9032507E038E059
:1034E000AB4844300068C0F340000028EED000BF75
:1034F0004DBB00BFB4F8B00000F44070B0F5407FA1
:103500000ED1A3481C38006820F47C51A24AD4F89C
:10351000B000104041EA10109D491C39086007E0D6
:103520009B481C38006820F47C5099491C3908607D
:10353000974844300068B4F8B010C1F30B01084359
:10354000934901E006E002E04431086002E02E43C6
:1035500000E02E43207800F0010068B3A06F182827
:1035600019D005DC48B1082808D0102816D10BE086
:10357000202811D0282811D10FE011E00121201DB1
:1035800006F0C8FC05460BE0012104F1240006F01A
:1035900059FD054604E003E002E001E0012500BF1B
:1035A00000BF55B97A482830006820F03800A16F74
:1035B000084377492831086000E02E43207800F066
:1035C0000200022828D1606F062815D2DFE800F03B
:1035D00003040A11121311E00121201D06F09AFCC8
:1035E00005460BE0012104F1240006F02BFD054601
:1035F00004E003E002E001E0012500BF00BF55B98F
:1036000063482830006820F00700616F0843604974
:103610002831086000E02E43207800F004000428E0
:103620002AD1D4F89000062815D2DFE800F0030470
:103630000A11121311E00121201D06F06BFC054652
:103640000BE0012104F1240006F0FCFC054604E037
:1036500003E002E001E0012500BF00BF5DB94C4876
:103660002C30006820F00700D4F890100843484937
:103670002C31086000E02E43207800F02000202844
:1036800036D1D4F88C00B0F1405F1DD007DC68B1B2
:10369000B0F1805F0BD0B0F1005F18D10DE0B0F158
:1036A000804F12D0B0F1A04F11D10FE011E00021F6
:1036B000201D06F02FFC05460BE0022104F124003A
:1036C00006F0C0FC054604E003E002E001E001254D
:1036D00000BF00BF5DB92E482830006820F0E040F0
:1036E000D4F88C1008432A492831086000E02E43A2
:1036F000207800F04000402836D1D4F89800B0F58A
:10370000406F1DD007DC68B1B0F5806F0BD0B0F50D
:10371000006F18D10DE0B0F5805F12D0B0F5A05F5A
:1037200011D10FE011E00021201D06F0F3FB05464A
:103730000BE0022104F1240006F084FC054604E0BD
:1037400003E002E001E0012500BF00BF5DB91048C1
:103750002C30006820F4E050D4F8981008430C494D
:103760002C31086000E02E43207800F08000802893
:103770003BD1D4F89C00B0F5C04F24D00EDCA0B1F2
:10378000B0F5005F12D0B0F5804F1FD114E00000FB
:103790002C44025800480258FFFCFF0FB0F5004FC0
:1037A00012D0B0F5204F11D10FE011E00021201D03
:1037B00006F0B0FB05460BE0022104F1240006F000
:1037C00041FC054604E003E002E001E0012500BF02
:1037D00000BF4DB9B248006820F46040D4F89C1096
:1037E0000843AF49086000E02E43207800F008004D
:1037F000082816D1D4F88000B0F5805F06D10221E8
:1038000004F1240006F01EFC06430AE0A448001F51
:10381000006820F44050D4F880100843A049091FE4
:103820000860207800F01000102814D1D4F894001B
:10383000B0F5807F06D1022104F1240006F002FCDD
:10384000064308E09648006820F44070D4F89410CD
:10385000084393490860206800F40020B0F5002F69
:1038600026D1D4F8A00030B1B0F5803F09D0B0F532
:10387000003F0ED10CE00021201D06F04BFB054659
:1038800009E0022104F1240006F0DCFB054602E019
:1038900001E0012500BF00BF4DB98148006820F458
:1038A0004030D4F8A01008437D49086000E02E4362
:1038B000206800F48020B0F5802F2DD1D4F884004A
:1038C000B0F5801F06D0B0F5001F0CD0B0F5401F3A
:1038D00011D10FE072482C38006840F40030704974
:1038E0002C39086009E0012104F1240006F0AAFB4C
:1038F000054602E001E0012500BF00BF5DB9684850
:10390000001F006820F44010D4F884100843644974
:10391000091F086000E02E43206800F48030B0F5F5
:10392000803F24D1E06C18B1B0F5803F0FD108E0A2
:103930005B482C38006840F4003059492C39086045
:1039400007E00221201D06F0E5FA054601E0012509
:1039500000BF00BF55B952480C38006820F48030D1
:10396000E16C08434E490C39086000E02E432068A2
:1039700000F00050B0F1005F05D1022104F12400F5
:1039800006F060FB0643206800F40030B0F5003F0D
:1039900027D1E06FA0B1B0F5807F06D0B0F5007FF1
:1039A0000CD0B0F5407F0CD109E03D482C380068C0
:1039B00040F400303A492C39086004E003E002E0AA
:1039C00001E0012500BF00BF55B93548001F006860
:1039D00020F44070E16F08433149091F086000E09E
:1039E0002E43206800F48010B0F5801F09D12C48C8
:1039F0000838006820F00040216F08432849083942
:103A00000860206800F08050B0F1805F0AD124483F
:103A10004838006820F48040D4F8B41008432049A6
:103A200048390860206800F40010B0F5001F09D183
:103A30001B480838006820F08070A16E08431849C0
:103A400008390860206800F08040B0F1804F11D143
:103A500000BF13484838006820F400401049483936
:103A6000086008460068D4F8B81008430C49483983
:103A7000086000BF206800F00040B0F1004F09D19D
:103A800007480C38006820F04050216D0843044975
:103A90000C39086016B90020BDE8F0810120FBE771
:103AA0005844025870B504460D4600268D480068FB
:103AB00000F00700A8420ED28A48006820F00700F4
:103AC0002843884908600846006800F00700A842BB
:103AD00001D0012070BD207800F00200022807D13B
:103AE0008148006820F00F00E16808437E490860C3
:103AF000207800F00100002851D07B48006820F4B5
:103B00007060A1680843784908606068022807D19E
:103B1000754818380068C0F34040F8B90120D9E76B
:103B20006068032807D1704818380068C0F3406007
:103B3000A0B90120CEE76068012807D16A4818388B
:103B40000068C0F3002048B90120C3E76648183870
:103B50000068C0F3800008B90120BBE7624808385C
:103B6000006820F00700616808435F490839086071
:103B7000FEF722FC06466068022811D108E0FEF735
:103B80001BFC801B41F28831884201D90320A1E748
:103B900055480838006800F038001028EFD13AE0A6
:103BA0006068032811D108E0FEF706FC801B41F293
:103BB0008831884201D903208CE74B4808380068D7
:103BC00000F038001828EFD125E06068012811D1F5
:103BD00008E0FEF7F1FB801B41F28831884201D9F1
:103BE000032077E740480838006800F038000828CC
:103BF000EFD110E008E0FEF7DFFB801B41F28831D7
:103C0000884201D9032065E737480838006800F08A
:103C100038000028EFD13348006800F00700A842C0
:103C20000ED93048006820F0070028432D4908606D
:103C30000846006800F00700A84201D0012049E7CB
:103C4000207800F00400042807D12748006820F0FD
:103C500070002169084324490860207800F00800BA
:103C6000082809D12048001D006820F07000616913
:103C700008431D49091D0860207800F01000102835
:103C800009D11948001D006820F4E060A1690843CB
:103C90001549091D0860207800F02000202809D16E
:103CA00011480830006820F07000E16908430E49AF
:103CB0000831086000F066F80B49096801F470618A
:103CC0004FF4807292FAA2F2B2FA82F2D140074A1D
:103CD000515CC840064908600F20FEF78DFB0020AC
:103CE000F8E600000020005218440258E8D7000807
:103CF0000400002410B5FEF7DBFE0949096801F055
:103D00000F01012292FAA2F2B2FA82F2D140054AE0
:103D1000515CC840044908600846006810BD0000B6
:103D200018440258E8D700080800002410B5FFF72F
:103D3000E1FF0749096801F07001102292FAA2F22E
:103D4000B2FA82F2D140034A515CC84010BD000073
:103D50001C440258E8D7000810B5FFF7CBFF07490D
:103D6000096801F4E0614FF4807292FAA2F2B2FAAB
:103D700082F2D140024A515CC84010BD1C44025836
:103D8000E8D7000870B5012500EE905A0022012105
:103D900000230024DFED861AB0EE610ADFED841AFD
:103DA000B0EE611A0020834D2D6805F0380535B15D
:103DB000082D15D0102D15D0182D7CD114E07D4D77
:103DC000103D2D68C5F3401545B17A4D103D2D6865
:103DD000C5F3C106784D25FA06F000E07648E5E027
:103DE0007648E3E07648E1E0724D18352D6805F03D
:103DF0000302704D18352D68C5F305116D4D1C3546
:103E00002D6805F001036B4D24352D68C5F3CC05F5
:103E100015FB03F501EE905AF8EE611AB0EE610A57
:103E200022B1012A4FD0022A7DD16BE0614D103DB5
:103E30002D68C5F340152DB35E4D103D2D68C5F3BB
:103E4000C1065D4D25FA06F4B4FBF1F501EE905A7A
:103E5000B8EE612ADFED5B1AC0EE212A554D203500
:103E60002D68C5F3080501EE905AF8EE611A72EE5E
:103E7000A11AF7EE002A71EEA21A62EE211AB0EE34
:103E8000611A1FE04C4DB5FBF1F501EE905AB8EE0A
:103E9000612ADFED4C1AC0EE212A464D20352D68EF
:103EA000C5F3080501EE905AF8EE611A72EEA11AF8
:103EB000F7EE002A00E077E071EEA21A62EE211A16
:103EC000B0EE611A5EE03D4DB5FBF1F501EE905AA2
:103ED000B8EE612ADFED3B1AC0EE212A354D2035C0
:103EE0002D68C5F3080501EE905AF8EE611A72EEDE
:103EF000A11AF7EE002A71EEA21A62EE211AB0EEB4
:103F0000611A3FE02E4DB5FBF1F501EE905AB8EE87
:103F1000612ADFED2C1AC0EE212A264D20352D68AE
:103F2000C5F3080500E00EE001EE905AF8EE611AC4
:103F300072EEA11AF7EE002A71EEA21A62EE211AB1
:103F4000B0EE611A1EE01D4DB5FBF1F501EE905A81
:103F5000F8EE612ADFED1B1A80EE212A154D20357F
:103F60002D68C5F3080501EE905AF8EE611A72EE5D
:103F7000211AB7EE002A71EE821A62EEA11AB0EE93
:103F8000611A00BF00BF0B4D20352D68C5F34625D3
:103F90006D1C00EE905AF8EE601A81EE212AFCEEBC
:103FA000C21A11EE900A01E0044800BF00BF70BDC4
:103FB00000000000104402580090D00300093D00AA
:103FC00040787D010000004670B504460025207849
:103FD00000F00100002872D0F948006800F03800B5
:103FE00010280CD0F648006800F03800182812D1CC
:103FF000F3481830006800F0030002280BD1F048A5
:1040000010380068C0F3404000286DD06068002878
:104010006AD1012070BD00BF6068B0F5803F08D153
:10402000E7481038006840F48030E54910390860EE
:104030002EE0606868B9E2481038006820F48030EB
:10404000DF49103908600846006820F480200860C5
:104050001EE06068B0F5A02F0DD1D9481038006877
:1040600040F48020D649103908600846006840F4C2
:10407000803008600CE0D2481038006820F48030AE
:10408000CF49103908600846006820F48020086095
:1040900000BF6068A0B1FEF78FF9054608E0FEF7A3
:1040A0008BF9401B41F28831884201D90320B1E7E6
:1040B000C34810380068C0F340400028EFD013E038
:1040C000FEF77AF9054608E0FEF776F9401B41F263
:1040D0008831884201D903209CE7B948103800682C
:1040E000C0F340400028EFD1207800F00200022801
:1040F00047D1B348006800F0380058B1B0480068B4
:1041000000F0380018283ED1AD481830006800F0A3
:104110000300B8BBAA4810380068C0F3800018B18B
:10412000E06808B9012075E7A5481038006820F05C
:104130001900E1680843A24910390860FEF73CF90C
:10414000054606E0FEF738F9401B022801D9032096
:1041500060E79B4810380068C0F380000028F1D069
:1041600097480C38006820F47C304FF47C3292FA87
:10417000A2F2B2FA82F221699140084390490C39C7
:1041800008604AE0FFE7E06868B38D4810380068CF
:1041900020F01900E1680843894910390860FEF7EA
:1041A0000BF9054606E0FEF707F9401B022801D986
:1041B00003202FE7824810380068C0F380000028F1
:1041C000F1D07F480C38006820F47C304FF47C320A
:1041D00092FAA2F2B2FA82F2216991400843784938
:1041E0000C39086019E076481038006820F00100AA
:1041F000734910390860FEF7DFF8054606E0FEF760
:10420000DBF8401B022801D9032003E76C48103873
:104210000068C0F380000028F1D1207800F0100081
:10422000102877D16648006800F0380008280CD0C4
:104230006348006800F03800182823D1604818301F
:10424000006800F0030001281CD15D4810380068A8
:10425000C0F3002020B1E069802801D00120D9E618
:1042600057480C38006820F0F8404FF0F84292FAB6
:10427000A2F2B2FA82F2216A9140084350490C3905
:10428000086047E0E06958B34D481038006840F0D6
:1042900080004B4910390860FEF78EF8054606E0AD
:1042A000FEF78AF8401B022801D90320B2E64448F1
:1042B00010380068C0F300200028F1D040480C38C6
:1042C000006820F0F8404FF0F84292FAA2F2B2FAF9
:1042D00082F2216A9140084339490C39086019E09B
:1042E00037481038006820F08000354910390860E0
:1042F000FEF762F8054606E0FEF75EF8401B02286E
:1043000001D9032086E62E4810380068C0F300204B
:104310000028F1D1207800F00800082836D1606923
:10432000D0B127486430006840F00100244964316E
:104330000860FEF741F8054606E0FEF73DF8401B31
:10434000022801D9032065E61D4864300068C0F3E7
:1043500040000028F1D019E019486430006820F0CE
:104360000100174964310860FEF726F8054606E0AB
:10437000FEF722F8401B022801D903204AE6104824
:1043800064300068C0F340000028F1D1207800F0CC
:104390002000202834D1A069D8B10948103800681D
:1043A00040F48050064910390860FEF705F80546CC
:1043B00008E0FEF701F8401B022803D9032029E694
:1043C00010440258AF480068C0F340300028F0D0D5
:1043D00016E0AC48006820F48050AA490860FDF758
:1043E000EBFF054606E0FDF7E7FF401B022801D979
:1043F00003200FE6A3480068C0F340300028F2D144
:10440000207800F0040004287DD19F48006840F423
:1044100080709D490860FDF7CFFF054606E0FDF777
:10442000CBFF401B642801D90320F3E596480068C0
:1044300000F480700028F2D000BFA068012808D1E5
:1044400090487030006840F001008E49703108607B
:104450002DE0A06868B98B487030006820F001003A
:104460008849703108600846006820F00400086040
:104470001DE0A06805280DD182487030006840F02A
:1044800004008049703108600846006840F001006F
:1044900008600CE07B487030006820F0010079492A
:1044A000703108600846006820F00400086000BF12
:1044B000A068A0B1FDF780FF054608E0FDF77CFF8E
:1044C000401B41F28831884201D90320A2E56D48A2
:1044D00070300068C0F340000028EFD013E0FDF713
:1044E0006BFF054608E0FDF767FF401B41F288318E
:1044F000884201D903208DE5624870300068C0F31E
:1045000040000028EFD1606A00287CD05D48103060
:10451000006800F03800182876D0606A022874D14C
:104520005848006820F0807056490860FDF744FF45
:10453000054606E0FDF740FF401B022801D9032095
:1045400068E550480068C0F340600028F2D100BF21
:10455000D4E90A1041EA00104A492831096840F2BA
:10456000F33291430843474928310860208E401EAA
:10457000C0F30800616B491E4FF47E4202EA4121FC
:104580000843218F491ED20102EA014108433C2120
:10459000095D491E120202EA0161084339493031BE
:1045A000086000BF081D00684FF6F87188434FF699
:1045B000F87292FAA2F2B2FA82F2A16C9140084328
:1045C0003049343108602F482C30006820F00C004E
:1045D000216C08432B492C3108600846006820F004
:1045E0000200616C084327492C31086008460068C6
:1045F00040F4803008600846006840F400300860ED
:104600000846006802E03BE038E01FE040F480200C
:1046100008600846006840F001000860194800681A
:1046200040F0807017490860FDF7C6FE054606E0B9
:10463000FDF7C2FE401B022801D90320EAE411481D
:104640000068C0F340600028F2D019E00D4800680F
:1046500020F080700B490860FDF7AEFE054606E0CD
:10466000FDF7AAFE401B022801D90320D2E4054829
:104670000068C0F340600028F2D101E00120C9E4E5
:104680000020C7E4004402580048025870B50446B0
:104690000D460CB9012070BD94F82C0028B90020FB
:1046A00084F82D00204600F019F8022084F82C0030
:1046B000211D2068FCF785FF2946D4E90002FCF79C
:1046C000D5FF0548006840F000400349086001201C
:1046D00084F82C000020DEE70040005210B586B0C0
:1046E000044600BF4648006840F0020044490860A4
:1046F0000846006800F00200009000BF00BF00BF45
:104700003F482038006840F480503D492039086017
:104710000846006800F48050009000BF00BF00BF52
:1047200037481438006840F00400354914390860EF
:104730000846006800F00400009000BF00BF00BF02
:104740000846006840F0080008600846006800F06D
:104750000800009000BF00BF00BF0846006840F09E
:10476000100008600846006800F01000009000BFCC
:1047700000BF00BF0846006840F0200008600846FF
:10478000006800F02000009000BF00BF00BF084696
:10479000006840F0400008600846006800F04000F3
:1047A000009000BF00BF0D20019002200290012068
:1047B0000390032004900C20059001A91148FDF7F7
:1047C000C3FC4CF20370019001A90F48FDF7BCFC3B
:1047D0004FF68370019001A90C48FDF7B5FC4FF628
:1047E0003F00019001A90A48FDF7AEFC48F23710DE
:1047F000019001A90748FDF7A7FC06B010BD000015
:10480000F444025800080258000C025800100258E4
:10481000001402580018025870B504460D4694F86A
:104820002C00022800D170BD022084F82C002946FB
:104830002068FCF700FF012084F82C000020F2E73C
:1048400070B504460D46164694F82C00022800D197
:1048500070BD022084F82C00324629462068FCF7FF
:10486000F1FE2868022803D1052084F82C0002E01C
:10487000012084F82C000020EAE7000070B504460F
:104880000E4615460CB9012070BD94F8450028B9B4
:10489000002084F84400204600F024F804F10801C8
:1048A0002068FCF71FFE3146A2682068FCF75AFE1C
:1048B0002946E36AD4E90102FCF7F0FDA16820680B
:1048C00050F8210040F00100A268216841F8220060
:1048D0000348006840F00040014908600020D3E729
:1048E0000040005210B586B0044600BF2048006862
:1048F00040F480501E4908600846006800F480506B
:10490000009000BF00BF00BF19480C30006840F0A5
:10491000080017490C3108600846006800F00800DC
:10492000009000BF00BF00BF0846006840F01000C4
:1049300008600846006800F01000009000BF00BF4B
:104940004EF2B370019002200290012003900320E8
:1049500004900C20059001A90648FDF7F5FB4FF6E1
:104960008070019001A90448FDF7EEFB06B010BD70
:10497000D4440258000C025800100258042808D1F0
:104980004FF0E021096941F004014FF0E02211618C
:1049900007E04FF0E021096921F004014FF0E02227
:1049A0001161704770B504462546681EB0F1807FDE
:1049B00001D301200FE0681E4FF0E02148610F2174
:1049C0004FF0FF3006F044FD00204FF0E0218861F9
:1049D00007200861002070BD7047704710B504467D
:1049E0000CB9012010BD94F83D0028B9002084F8CE
:1049F0003C00204600F00CF8022084F83D00211D08
:104A0000206805F0D1FD012084F83D000020E9E791
:104A100038B5044600BF0B48006840F00200094961
:104A200008600846006800F00200009000BF00BF68
:104A3000032201211D20FDF7E9FF1D20FDF7D6FF10
:104A400038BD0000E844025801460868C06840F0DC
:104A500001000A68D0600868008840F001000A6818
:104A6000108000207047704710B504462068006928
:104A7000C0F34000D8B12068C068C0F34000B0B1B6
:104A80006FF00200216808610120207720688069AA
:104A900000F0030018B12046FFF7E5FF05E02046CF
:104AA00000F0BEF8204600F0BCF800202077206817
:104AB0000069C0F38000D8B12068C068C0F38000EE
:104AC000B0B16FF0040021680861022020772068EF
:104AD000806900F4407018B12046FFF7C4FF05E07C
:104AE000204600F09DF8204600F09BF8002020773B
:104AF00020680069C0F3C000D8B12068C068C0F366
:104B0000C000B0B16FF00800216808610420207770
:104B10002068C06900F0030018B12046FFF7A3FF2A
:104B200005E0204600F07CF8204600F07AF80020EE
:104B3000207720680069C0F30010D8B12068C068F1
:104B4000C0F30010B0B16FF01000216808610820B8
:104B500020772068C06900F4407018B12046FFF744
:104B600082FF05E0204600F05BF8204600F059F88F
:104B7000002020772068006900F0010058B120680B
:104B8000C06800F0010030B16FF0010021680861D9
:104B9000204600F047F820680069C0F3C01058B103
:104BA0002068C068C0F3C01030B16FF08000216889
:104BB00008612046FFF710FF20680069C0F300205D
:104BC00058B12068C068C0F3C01030B16FF08000E9
:104BD000216808612046FFF7FFFE20680069C0F3E6
:104BE000801058B12068C068C0F3801030B16FF0F9
:104BF000400021680861204600F022F82068006922
:104C0000C0F3401058B12068C068C0F3401030B104
:104C10006FF02000216808612046FFF7DEFE10BD1E
:104C2000704770470449884204D104490978491CF7
:104C3000024A117070470000DC3500240000002497
:104C400070477047704701460022002391F8792091
:104C500091F87A3042EA0300704700002DE9F041F4
:104C600004462068C569206807682068866805F0E2
:104C70000F08B8F1000F0DD105F0200050B107F07A
:104C8000200010B906F0805020B1204605F0FBFD51
:104C9000BDE8F081B8F1000F72D05D48304018B91E
:104CA00007F4907000287AD005F0010048B107F4AD
:104CB000807030B1012021680862E06F40F001008F
:104CC000E06705F0020048B106F0010030B10220B3
:104CD00021680862E06F40F00400E06705F004001E
:104CE00048B106F0010030B1042021680862E06F8D
:104CF00040F00200E06705F0080078B107F02000FE
:104D000028B906F0805010B906F0010030B1082033
:104D100021680862E06F40F00800E067E06F70B360
:104D200005F0200040B107F0200010B906F08050D7
:104D300010B1204605F0A7FDE06F00F0080020B993
:104D40002068806800F0400018B3204605F07BFD25
:104D50002068806800F04000B8B12068806820F0CA
:104D6000400021688860606F58B12A48616F08650B
:104D7000606FFDF763F910B1606F016D88470DE05A
:104D80000DE02046FFF75EFF08E02046FFF75AFFE0
:104D900004E02046FFF756FF0020E06778E705F4BF
:104DA000801078B106F4800060B14FF48010216863
:104DB0000862202084F8790084F87A002046FFF702
:104DC00040FF65E705F0800048B107F0800010B9AA
:104DD00006F4000018B1204606F06CFA58E705F01A
:104DE000400030B107F0400018B1204605F03BFD0F
:104DF0004EE705F4000040B107F0804028B120687C
:104E0000006820F080402168086000BF40E7000093
:104E1000010000102FA8000810B504460CB90120AD
:104E200010BDA06900B100E000BF94F8790028B976
:104E3000002084F87800204600F02AF8242084F826
:104E400079002068006820F0010021680860204691
:104E500005F05EFD012800D1E2E7606B10B120464D
:104E600005F036FC2068406820F4904021684860D6
:104E70002068806820F02A00216888602068006827
:104E800040F0010021680860204605F096FCC7E765
:104E900010B586B004462149206888423BD100BF46
:104EA0001F48006840F001001D490860084600687E
:104EB00000F00100009000BF00BF00BF1848103094
:104EC000006840F01000164910310860084600687C
:104ED00000F01000009000BF00BF4FF40070019080
:104EE00002200290012003900220049007200590E8
:104EF00001A90C48FDF728F94FF48060019001A941
:104F00000848FDF721F92520FDF770FD0322114621
:104F10002520FDF77BFD06B010BD0000001001400C
:104F2000E04402580000025810B5034693F87A0096
:104F3000202867D101B10AB9012010BD00BF93F844
:104F40007800012801D10220F7E7012083F87800DA
:104F500000BF5966A3F86820A3F86A2000BF9868CC
:104F6000B0F5805F0AD1186920B940F2FF10A3F8AC
:104F70006C001CE0FF20A3F86C0018E0986848B9AA
:104F8000186918B9FF20A3F86C0010E07F20A3F87F
:104F90006C000CE09868B0F1805F08D1186918B90E
:104FA0007F20A3F86C0002E03F20A3F86C0000BF54
:104FB0000020D867222083F87A0000BF002083F801
:104FC000780000BF1868806840F001001C68A0608D
:104FD0001868006800F0005060B11868006840F47C
:104FE00080701C6820601868806840F080501C68E1
:104FF000A06005E01868006840F490701C682060AC
:1050000000209AE7022098E71D4A0168914236D1B4
:105010001C49098801F4004189BB1A49098801F437
:10502000804171B1184909780A2903D00021154A35
:10503000118024E01349098841F40041114A11808C
:105040001DE0114909780D2906D10E49098841F45E
:1050500080410C4A118012E00B490978094A1288F4
:10506000C2F30D02094B995406490988491C054AA7
:10507000118011460988C72901DD00211180704780
:1050800000100140140000241600002440320024C7
:10509000704700BFFEE7000000B587B000BF24489E
:1050A000006840F00100224908600846006800F0EE
:1050B0000100019000BF00BF00BF0846006840F03B
:1050C000040008600846006800F00400019000BF7A
:1050D00000BF00BF0846006840F080000860084636
:1050E000006800F08000019000BF00BF0120029026
:1050F00000200390022004900320059002A90D488F
:10510000FDF722F84FF40050029000200390012098
:1051100004900320059002A90748FDF715F80C201C
:10512000029002A90548FDF70FF807B000BD000086
:10513000E04402580000025800080258001C0258BF
:1051400010B50446012C01D12D4908702C48007877
:10515000002839D008212B48FDF71CF980B1042123
:105160002848FDF717F958B14FF400512648FDF7CC
:1051700011F928B101212548FDF70CF9012823D1A7
:105180000A2006F0F1FD00201D49087008211D4885
:10519000FDF700F908B9012010BD04211948FDF7F9
:1051A000F9F808B90220F7E74FF400511648FDF767
:1051B000F1F808B90320EFE701211448FDF7EAF8F8
:1051C00001281BD10420E7E708210E48FDF7E2F88B
:1051D000012813D104210B48FDF7DCF801280DD17B
:1051E00041030948FDF7D6F8012807D101210748F6
:1051F000FDF7D0F810B90120014908700020CBE775
:1052000021000024001C0258000802580000025827
:1052100070B5044600260D4805880D48006818B191
:10522000204603F0E3FA0FE0084840884543002198
:10523000084603F023F903F09BFA002602E0054933
:105240000C80761CAE42FAD370BD000008340024F6
:10525000203500240000086010B5044660488471C1
:105260006048006850B1204603F0EAFA5D48C08A01
:105270005B4908805B48008B488010BD002C58D1EA
:10528000F020574908804FF4A07048800846808875
:1052900045F21051884210D14FF4305050490881E6
:1052A0004FF4285048814FF42C5088814FF4F0700F
:1052B00008804FF4487048801AE04948808841F6D9
:1052C000631188420DD12C20454908812B2048814B
:1052D0002A2088814FF4F07008804FF4487048808D
:1052E00006E02C203E4908812A2048812B20888115
:1052F0003B48808845F21031884205D03848808884
:1053000047F29671884206D14FF4A0703449088064
:105310004FF4F07048803248808849F60601884290
:1053200058D14FF4F0702E4908804FF448704880EF
:1053300050E04FF4A0702A490880F02048800846C9
:10534000808845F21051884210D14FF430502449E2
:1053500008814FF4285048814FF42C5088814FF435
:10536000487008804FF4F070488020E01C48808826
:1053700041F66311884205D01948808849F6060134
:1053800088420DD12C20164908812A2048812B20E3
:1053900088814FF4487008804FF4F070488006E030
:1053A0002C200F4908812A2048812B2088810C4815
:1053B000808845F21031884205D00948808847F23C
:1053C0009671884206D14FF4F070054908804FF479
:1053D000A0704880002002F033FF00BF4DE70000BE
:1053E000083400242035002470B504460D461646C6
:1053F0003D48006828B132462946204603F036FA77
:1054000070BD3A48808845F21051884220D1374912
:10541000488903F0A1F9201203F092F93349498930
:10542000491C88B203F098F9E0B203F089F92F49DA
:10543000888903F091F9281203F082F92B498989B0
:10544000491C88B203F088F9E8B203F079F942E028
:105450002648808841F66311884228D12348807904
:1054600020B922480088401E001B84B21F49488989
:1054700003F072F9201203F063F9E0B203F060F96F
:10548000201203F05DF9E0B203F05AF91749888958
:1054900003F062F9281203F053F9E8B203F050F96F
:1054A000281203F04DF9E8B203F04AF913E00F496E
:1054B000488903F051F9201203F042F9E0B203F0F9
:1054C0003FF90A49888903F047F9281203F038F9AF
:1054D000E8B203F035F90548008905490880891CC0
:1054E0000E8000BF8CE70000203500240834002423
:1054F000FEFF076000B595B003F0E2FCFD4988802F
:105500000846808818B103F07DFA02F0E3BD00BFC1
:10551000F948006840F00200F74908600846006852
:1055200000F00200019000BF00BF20201090012079
:10553000119012900320139010A9F048FCF704FE7C
:1055400002F024FEEE48EF490860EF484860002072
:1055500088600021EB48C160016110214161002198
:105560008161C16101624FF4805141620021816219
:105570004FF48041C1620021016341634FF4801107
:1055800081631120099000200A9055200B90002083
:105590000F90152002900020039015200490002009
:1055A000089002AA09A9D748FFF768F9322006F047
:1055B000DBFBD32003F0D0F802F010FECD49888049
:1055C00002F00CFECB49888002F008FEC9498880B1
:1055D000084680884FF6FF7101EA0020C54988809F
:1055E00002F0FCFDC34989880843C2498880084607
:1055F000808849F2413188427ED0042003F0ACF823
:1056000002F0ECFDBB49888002F0E8FDB9498880D2
:1056100002F0E4FDB7498880084680884FF6FF71A4
:1056200001EA0020B349888002F0D8FDB149898899
:105630000843B04988800846808848F25251884221
:1056400003D147F28970AB498880AA48808847F225
:1056500089718842D0D0D42003F07EF802F0BEFDDC
:10566000A449888002F0BAFDA249888002F0B6FD04
:10567000A0498880084680884FF6FF7101EA002023
:105680009C49888002F0AAFD9A4989880843994973
:1056900088800846808845F210318842ACD0D320FB
:1056A00003F05AF802F09AFD9249888002F096FDC4
:1056B0009049888002F092FD8E4988800846808853
:1056C0004FF6FF7101EA00208A49888002F086FDCA
:1056D000884989880843874988800846808847F236
:1056E0009671884288D055214FF4704003F04AF8F3
:1056F000AA214FF2010000E07CE003F043F85221C0
:105700004FF2020003F03EF808214FF2030003F0CD
:1057100039F801214FF2040003F034F84FF445400A
:1057200003F01AF802F05AFD724988800846808812
:105730004FF6FF7101EA00206E4988804CF201505B
:1057400003F00AF802F04AFD6A498988084369496A
:105750008880052006F008FB6648808845F21051D5
:10576000884247D0D32002F0F7FF02F037FD6149AD
:10577000888002F033FD5F49888002F02FFD5D498B
:105780008880084680884FF6FF7101EA0020594959
:10579000888002F023FD574989880843554988804D
:1057A0000846808849F60601884223D0A12002F0ED
:1057B000D3FF02F013FD4F49888002F00FFD4D49E1
:1057C0008880084680884FF6FF7101EA0020494929
:1057D000888002F003FD474989880843454988804D
:1057E0000846808845F26171884203D141F6631012
:1057F000404988803F48818844A005F0FDFD3D4830
:10580000808849F24131884273D1CF2002F0A4FF51
:10581000002002F095FFC12002F092FF302002F03C
:105820008FFFED2002F098FF642002F089FF032033
:1058300002F086FF122002F083FF812002F080FF39
:10584000E82002F089FF852002F07AFF102002F0A4
:1058500077FF7A2002F074FFCB2002F07DFF392021
:1058600002F06EFF2C2002F06BFF002002F068FFB8
:10587000342002F065FF022002F062FFF72002F000
:105880006BFF202002F05CFFEA2002F065FF0020A1
:1058900002F056FF002002F053FFC02002F05CFF30
:1058A0001B2002F04DFFC12002F056FF012002F044
:1058B00047FFC52002F050FF302002F041FF3020AA
:1058C00002F03EFFC72002F047FFB72002F038FF8A
:1058D000362002F041FF482002F032FF3A2002F069
:1058E0003BFF552002F02CFFB12002F035FF0020D5
:1058F00014E0B5E008340024E044025800040258E3
:1059000000400052BC33002404410052204C434468
:105910002049443A25780D0A0000000002F010FFEB
:105920001A2002F00DFFB62002F016FF0A2002F046
:1059300007FFA22002F004FFF22002F00DFF00207A
:1059400002F0FEFE262002F007FF012002F0F8FE22
:10595000E02002F001FF0F2002F0F2FE2A2002F008
:10596000EFFE282002F0ECFE082002F0E9FE0E20F7
:1059700002F0E6FE082002F0E3FE542002F0E0FE12
:10598000A92002F0DDFE432002F0DAFE0A2002F038
:10599000D7FE0F2002F0D4FE002002F0D1FE00203E
:1059A00002F0CEFE002002F0CBFE002002F0C8FE86
:1059B000E12002F0D1FE002002F0C2FE152002F02C
:1059C000BFFE172002F0BCFE072002F0B9FE112036
:1059D00002F0B6FE062002F0B3FE2B2002F0B0FE6D
:1059E000562002F0ADFE3C2002F0AAFE052002F097
:1059F000A7FE102002F0A4FE0F2002F0A1FE3F201F
:105A000002F09EFE3F2002F09BFE0F2002F098FE67
:105A10002B2002F0A1FE002002F092FE002002F0F6
:105A20008FFE012002F08CFE3F2002F089FE2A202A
:105A300002F092FE002002F083FE002002F080FEC1
:105A4000002002F07DFEEF2002F07AFE112002F02D
:105A500083FE782006F088F9292002F07DFE54E5C7
:105A6000FE48808847F2897188427CD1112002F07B
:105A700073FE782006F078F9362002F06DFE0020E3
:105A800002F05EFE3A2002F067FE052002F058FEAA
:105A9000B22002F061FE0C2002F052FE0C2002F057
:105AA0004FFE002002F04CFE332002F049FE33206E
:105AB00002F046FEB72002F04FFE352002F040FE15
:105AC000BB2002F049FE322002F03AFEC02002F074
:105AD00043FE0C2002F034FEC22002F03DFE012005
