:020000040800F2
:10000000000008249D0700082D060008350600089A
:100010003D060008450600084D06000800000000E7
:10002000000000000000000000000000550600086D
:100030006306000800000000710600087F06000843
:10004000ED070008ED070008ED070008ED070008C0
:10005000ED070008ED070008ED070008ED070008B0
:10006000ED070008ED070008ED070008ED070008A0
:10007000ED070008ED070008ED070008ED07000890
:10008000ED070008ED070008ED070008ED07000880
:10009000ED070008ED070008ED070008ED07000870
:1000A000ED070008ED070008ED070008ED07000860
:1000B000ED070008ED070008ED070008ED07000850
:1000C000ED070008ED070008ED070008ED07000840
:1000D000ED070008ED070008ED070008ED07000830
:1000E000ED070008ED07000800000000ED0700081C
:1000F000ED070008ED070008ED070008ED07000810
:10010000ED070008ED070008ED070008ED070008FF
:10011000ED070008ED070008ED070008ED070008EF
:10012000ED070008ED070008ED070008ED070008DF
:10013000ED070008ED070008ED070008ED070008CF
:1001400000000000000000000000000000000000AF
:10015000ED070008ED070008ED070008ED070008AF
:10016000ED070008ED070008ED070008ED0700089F
:10017000ED070008ED070008ED070008000000008B
:10018000ED070008ED070008ED070008ED0700087F
:10019000ED070008ED070008ED070008ED0700086F
:1001A000ED070008ED070008ED070008ED0700085F
:1001B000ED070008ED070008ED070008ED0700084F
:1001C000ED070008ED070008ED070008ED0700083F
:1001D000ED070008ED070008ED070008ED0700082F
:1001E000ED070008ED070008ED070008ED0700081F
:1001F000ED070008ED070008ED070008ED0700080F
:10020000ED070008ED070008ED070008ED070008FE
:10021000ED070008ED070008ED070008ED070008EE
:10022000ED070008ED070008ED07000800000000DA
:10023000ED070008ED07000800000000ED070008CA
:10024000ED070008ED070008ED070008ED070008BE
:10025000ED070008ED070008ED070008ED070008AE
:10026000ED070008ED070008ED070008ED0700089E
:10027000ED070008ED070008ED070008000000008A
:10028000ED070008ED070008ED070008000000007A
:0802900000000000ED0700086A
:1002980010B5054C237833B9044B13B10448AFF3B8
:1002A80000800123237010BD10000024000000000E
:1002B800681E000808B5034B1BB103490348AFF398
:1002C800008008BD0000000014000024681E00081B
:1002D80080B588B000AF07F10C0300221A605A609D
:1002E8009A60DA601A611A4BD3F8E030184A43F082
:1002F8008003C2F8E030164BD3F8E03003F08003F7
:10030800BB60BB68124BD3F8E030114A43F00103DD
:10031800C2F8E0300E4BD3F8E03003F001037B6005
:100328007B68002280210B4800F090FD8023FB6051
:1003380001233B6101237B610323BB6107F10C03AC
:100348001946044800F0D2FB00BF2037BD4680BDE7
:1003580000440258001C025880B483B000AF786093
:1003680000BF7B685A1E7A60002BFAD100BF00BF1D
:100378000C37BD465DF8047B7047000080B584B03B
:1003880000AF3E4B5B6903F40033002B1BD1BFF376
:100398004F8F00BFBFF36F8F00BF384B0022C3F8E9
:1003A8005022BFF34F8F00BFBFF36F8F00BF334B97
:1003B8005B69324A43F400335361BFF34F8F00BF88
:1003C800BFF36F8F00E000BF2C4B5B6903F48033F1
:1003D800002B38D1294B0022C3F88420BFF34F8F5C
:1003E80000BF264BD3F88030FB60FB685B0BC3F380
:1003F8000E03BB60FB68DB08C3F309037B60BB68C3
:100408005A0143F6E07313407A6892071B49134375
:10041800C1F860327B685A1E7A60002BEFD1BB6846
:100428005A1EBA60002BE5D1BFF34F8F00BF134BA4
:100438005B69124A43F480335361BFF34F8F00BFA7
:10044800BFF36F8F00E000BF00F0CEF900F01AF89C
:10045800FFF73EFF01228021094800F0F7FC6FF00A
:100468007E40FFF779FF00228021054800F0EEFC6E
:100478006FF07E40FFF770FF00BFEBE700ED00E094
:10048800001C025880B59EB000AF07F12C034C2227
:100498000021184601F0B8FC07F10C0320220021C6
:1004A800184601F0B1FC022000F0EAFC0023BB6012
:1004B800494BDB6A484A23F00103D362464BDB6AA7
:1004C80003F00103BB60454B9B69444A43F4404336
:1004D8009361424B9B6903F44043BB60BB6800BF18
:1004E8003E4B9B6903F40053B3F5005FF8D13C4BD6
:1004F800D3F8F4303A4A43F00203C2F8F430384BE8
:10050800D3F8F43003F002037B607B6800233B6080
:10051800324B9B69314A43F4404393612F4B9B69AB
:1005280003F440433B602C4BDB6A2B4A43F0010346
:10053800D362294BDB6A03F001033B603B6800BFD1
:10054800264B9B6903F40053B3F5005FF8D10223EF
:10055800FB620123BB634023FB6302233B6500234B
:100568007B650423BB653C23FB6502233B660223B2
:100578007B660223BB660C23FB6600233B670023D4
:100588007B6707F12C03184600F0B4FC0346002BE8
:1005980001D000F027F83F23FB6003233B610023D1
:1005A8007B610823BB614023FB6140233B624FF41E
:1005B80080637B624023BB6207F10C030421184669
:1005C80001F0F2F80346002B01D000F00BF800BF51
:1005D8007837BD4680BD00BF000400580048025867
:1005E8000044025880B400AF72B600BF00BFFDE7F8
:1005F80080B483B000AF0A4BD3F8F430084A43F014
:100608000203C2F8F430064BD3F8F43003F00203C7
:100618007B607B6800BF0C37BD465DF8047B704784
:100628000044025880B400AF00BFFDE780B400AFBB
:1006380000BFFDE780B400AF00BFFDE780B400AFA6
:1006480000BFFDE780B400AF00BFFDE780B400AF96
:1006580000BFBD465DF8047B704780B400AF00BFA3
:10066800BD465DF8047B704780B400AF00BFBD464F
:100678005DF8047B704780B500AF00F027F900BF34
:1006880080BD000080B400AF374BD3F88830364ABD
:1006980043F47003C2F88830344B1B6803F00F032F
:1006A800062B07D8314B1B6823F00F032F4A43F062
:1006B800070313602E4B1B682D4A43F00103136098
:1006C8002B4B00221A612A4B1A682949294B1340DF
:1006D8000B60264B1B6803F00803002B07D0234B45
:1006E8001B6823F00F03214A43F007031360204BD4
:1006F80000229A611E4B0022DA611D4B00221A6209
:100708001B4B1D4A9A621A4B1C4ADA62184B1C4A48
:100718001A63174B00225A63154B194A9A63144BF4
:100728000022DA63124B164A1A64114B00225A64EB
:100738000F4B1B680E4A23F4802313600C4B0022D6
:100748001A66104B1A68104B1340B3F1005F02D2BF
:100758000E4B01221A600E4B43F2D2021A6000BF00
:10076800BD465DF8047B704700ED00E000200052B4
:10077800004402587FEDF6EA000202020000FF0181
:10078800800201010010005C0000FFFF0881005199
:1007980000400052DFF834D0FFF774FF0C480D49D1
:1007A8000D4A002302E0D458C4500433C4188C42C4
:1007B800F9D30A4A0A4C002301E013600432A2422A
:1007C800FBD301F029FBFFF7D9FD7047000008248F
:1007D8000000002410000024981E000810000024C7
:1007E80030000024FEE7000080B582B000AF03208F
:1007F80000F04AF901F08EF90246154B9B691B0A75
:1008080003F00F031349CB5C03F01F0322FA03F331
:100818007B600F4B9B6903F00F030E4AD35C03F018
:100828001F037A6822FA03F30B4A13600B4A7B68AA
:1008380013600F2000F014F80346002B01D00123A9
:1008480002E0FFF7D5FE002318460837BD4680BDF5
:1008580000440258801E0008040000240000002400
:1008680080B582B000AF7860154B1B78002B01D1A2
:10087800012321E0134B1A68114B1B7819464FF4DA
:100888007A73B3FBF1F3B2FBF3F3184600F021F9E6
:100898000346002B01D001230EE07B680F2B0AD8FA
:1008A800002279684FF0FF3000F0F9F8064A7B68BB
:1008B8001360002300E0012318460837BD4680BDB9
:1008C8000C000024000000240800002480B400AFBD
:1008D800064B1B781A46064B1B681344044A1360E0
:1008E80000BFBD465DF8047B704700BF0C000024C4
:1008F8002C00002480B400AF034B1B681846BD468B
:100908005DF8047B704700BF2C00002480B400AF62
:10091800034B1B681B0C1846BD465DF8047B7047EB
:100928000010005C80B485B000AF78607B6803F08D
:100938000703FB600B4BDB68BB60BA684FF6FF032D
:100948001340BB60FB681A02BB681A43064B13438B
:10095800BB60044ABB68D36000BF1437BD465DF86E
:10096800047B704700ED00E00000FA0580B400AF9A
:10097800044BDB681B0A03F007031846BD465DF805
:10098800047B704700ED00E080B483B000AF0346FD
:100998003960FB80B7F90630002B0ADB3B68DAB216
:1009A8000C49B7F906301201D2B20B4483F8002380
:1009B8000AE03B68DAB20849FB8803F00F03043BFE
:1009C8001201D2B20B441A7600BF0C37BD465DF84F
:1009D800047B704700E100E000ED00E080B489B0DE
:1009E80000AFF860B9607A60FB6803F00703FB6149
:1009F800FB69C3F10703042B28BF0423BB61FB6910
:100A08000433062B02D9FB69033B00E000237B611A
:100A18004FF0FF32BB6902FA03F3DA43BB681A40AE
:100A28007B699A404FF0FF317B6901FA03F3D943A0
:100A38007B680B40134318462437BD465DF8047B9A
:100A48007047000080B582B000AF78607B68013BDA
:100A5800B3F1807F01D301230FE00A4A7B68013B91
:100A680053600F214FF0FF30FFF78EFF054B002238
:100A78009A60044B07221A60002318460837BD46BF
:100A880080BD00BF10E000E080B582B000AF7860A4
:100A98007868FFF747FF00BF0837BD4680BD80B5BF
:100AA80086B000AF0346B9607A60FB81FFF75EFF4E
:100AB80078617A68B9687869FFF790FF0246B7F9F4
:100AC8000E3011461846FFF75FFF00BF1837BD46C6
:100AD80080BD80B582B000AF78607868FFF7B2FF5C
:100AE800034618460837BD4680BD000080B489B06B
:100AF80000AF786039600023FB61894B7B6194E12A
:100B08003B681A680121FB6901FA03F313403B6152
:100B18003B69002B00F086813B685B6803F00303A8
:100B2800012B05D03B685B6803F00303022B30D12F
:100B38007B689B68BB61FB695B00032202FA03F3D5
:100B4800DB43BA691340BB613B68DA68FB695B0049
:100B580002FA03F3BA691343BB617B68BA699A6006
:100B68007B685B68BB610122FB6902FA03F3DB4324
:100B7800BA691340BB613B685B681B0903F001025B
:100B8800FB6902FA03F3BA691343BB617B68BA696C
:100B98005A603B685B6803F00303032B17D07B683C
:100BA800DB68BB61FB695B00032202FA03F3DB43EA
:100BB800BA691340BB613B689A68FB695B0002FA3B
:100BC80003F3BA691343BB617B68BA69DA603B68AF
:100BD8005B6803F00303022B23D1FB69DA087B6807
:100BE800083253F82230BB61FB6903F007039B000E
:100BF8000F2202FA03F3DB43BA691340BB613B6877
:100C08001A69FB6903F007039B0002FA03F3BA6948
:100C18001343BB61FB69DA087B680832B96943F89A
:100C280022107B681B68BB61FB695B00032202FA28
:100C380003F3DB43BA691340BB613B685B6803F0AD
:100C48000302FB695B0002FA03F3BA691343BB6151
:100C58007B68BA691A603B685B6803F44033002B11
:100C680000F0E0802F4BD3F8F4302E4A43F0020313
:100C7800C2F8F4302B4BD3F8F43003F00203FB60D6
:100C8800FB68294AFB699B08023352F82330BB6191
:100C9800FB6903F003039B000F2202FA03F3DB4313
:100CA800BA691340BB617B68204A934252D07B6883
:100CB8001F4A934231D07B681E4A93422BD07B68EF
:100CC8001D4A934225D07B681C4A93421FD07B68FB
:100CD8001B4A934219D07B681A4A934213D07B6807
:100CE800194A93420DD07B68184A934207D07B6813
:100CF800174A934201D109232DE00A232BE0082348
:100D080029E0072327E0062325E0052323E0042321
:100D180021E003231FE002231DE001231BE000BFA5
:100D2800800000580044025800040058000002588F
:100D38000004025800080258000C0258001002581B
:100D48000014025800180258001C025800200258CB
:100D5800002402580023FA6902F00302920093402B
:100D6800BA691343BB613849FB699B080233BA6906
:100D780041F823204FF0B0431B68BB613B69DB435C
:100D8800BA691340BB613B685B6803F48013002BAE
:100D980003D0BA693B691343BB614FF0B042BB69EA
:100DA80013604FF0B0435B68BB613B69DB43BA69D2
:100DB8001340BB613B685B6803F40013002B03D04E
:100DC800BA693B691343BB614FF0B042BB695360DA
:100DD8007B695B68BB613B69DB43BA691340BB61F4
:100DE8003B685B6803F40033002B03D0BA693B69A6
:100DF8001343BB617B69BA695A607B691B68BB6135
:100E08003B69DB43BA691340BB613B685B6803F429
:100E18008033002B03D0BA693B691343BB617B69FC
:100E2800BA691A60FB690133FB613B681A68FB69A0
:100E380022FA03F3002B7FF463AE00BF00BF243710
:100E4800BD465DF8047B70470004005880B483B049
:100E580000AF78600B467B8013467B707B78002B55
:100E680003D07A887B689A6103E07B881A047B68E0
:100E78009A6100BF0C37BD465DF8047B70470000DF
:100E880080B584B000AF7860194BDB6803F00403C9
:100E9800042B0AD0164BDB6803F007037A689A42E2
:100EA80001D001231FE000231DE0114BDB6823F074
:100EB80007020F497B681343CB60FFF71BFDF860FF
:100EC80009E0FFF717FD0246FB68D31AB3F57A7FEE
:100ED80001D9012307E0064B5B6803F40053B3F51F
:100EE800005FEED1002318461037BD4680BD00BF15
:100EF8000048025880B58CB000AF78607B68002B42
:100F080002D1012300F048BC7B681B6803F0010391
:100F1800002B00F08880994B1B6903F03803FB62B3
:100F2800964B9B6ABB62FB6A102B07D0FB6A182B97
:100F380011D1BB6A03F00303022B0CD18F4B1B6842
:100F480003F40033002B6DD07B685B68002B69D1FC
:100F5800012300F021BC7B685B68B3F5803F06D1B4
:100F6800864B1B68854A43F4803313602EE07B6808
:100F78005B68002B0CD1814B1B68804A23F48033BB
:100F880013607E4B1B687D4A23F4802313601DE0A9
:100F98007B685B68B3F5A02F0CD1784B1B68774A48
:100FA80043F480231360754B1B68744A43F4803301
:100FB80013600BE0714B1B68704A23F48033136095
:100FC8006E4B1B686D4A23F4802313607B685B6853
:100FD800002B13D0FFF78EFC786208E0FFF78AFC3D
:100FE80002467B6AD31A642B01D90323D4E3634BEB
:100FF8001B6803F40033002BF0D014E0FFF77AFCF1
:10100800786208E0FFF776FC02467B6AD31A642B05
:1010180001D90323C0E3594B1B6803F40033002BA9
:10102800F0D100E000BF7B681B6803F00203002BCF
:1010380000F0CA80514B1B6903F038033B624F4BE9
:101048009B6AFB613B6A002B07D03B6A182B56D181
:10105800FB6903F00303002B51D1484B1B6803F0D5
:101068000403002B05D07B68DB68002B01D101232A
:1010780092E3424B1B6823F019027B68DB683F4907
:1010880013430B60FFF736FC786208E0FFF732FC89
:1010980002467B6AD31A022B01D903237CE3374B20
:1010A8001B6803F00403002BF0D0FFF72FFC034666
:1010B80041F20302934217D87B681B69402B08D181
:1010C8002E4B5B6823F47C332C4A43F40033536083
:1010D8007AE02A4B5B6823F47C327B681B691B032C
:1010E800264913434B606FE0244B5B6823F0FE42B4
:1010F8007B681B691B06214913434B6064E07B68CE
:10110800DB68002B47D01D4B1B6823F019027B6856
:10111800DB681A4913430B60FFF7ECFB786208E0C1
:10112800FFF7E8FB02467B6AD31A022B01D9032397
:1011380032E3124B1B6803F00403002BF0D0FFF7D7
:10114800E5FB034641F20302934219D87B681B6909
:10115800402B08D1094B5B6823F47C33074A43F4DE
:101168000033536030E0054B5B6823F47C327B68C6
:101178001B691B03014913434B6025E000440258D7
:101188009A4B5B6823F0FE427B681B691B069749F4
:1011980013434B6018E0954B1B68944A23F00103F6
:1011A8001360FFF7A7FB786208E0FFF7A3FB02468E
:1011B8007B6AD31A022B01D90323EDE28B4B1B6800
:1011C80003F00403002BF0D17B681B6803F01003C5
:1011D800002B00F0A980854B1B6903F03803BB6125
:1011E800824B9B6A7B61BB69082B07D0BB69182BB4
:1011F8003AD17B6903F00303012B35D17B4B1B6884
:1012080003F48073002B05D07B68DB69802B01D049
:101218000123C1E2FFF77AFB034641F2030293423E
:1012280017D87B681B6A202B08D1704B5B6823F0AA
:10123800F8436E4A43F08043536075E06B4B5B683C
:1012480023F0F8427B681B6A9B06684913434B608E
:101258006AE0664BDB6823F07C527B681B6A1B06DE
:1012680062491343CB605FE07B68DB69002B42D0A7
:101278005E4B1B685D4A43F080031360FFF73AFB3F
:10128800786208E0FFF736FB02467B6AD31A022B26
:1012980001D9032380E2554B1B6803F48073002BAC
:1012A800F0D0FFF733FB034641F20302934217D80D
:1012B8007B681B6A202B08D14C4B5B6823F0F843F2
:1012C8004A4A43F0804353602EE0484B5B6823F062
:1012D800F8427B681B6A9B06444913434B6023E032
:1012E800424BDB6823F07C527B681B6A1B063F4934
:1012F8001343CB6018E03D4B1B683C4A23F0800346
:101308001360FFF7F7FA786208E0FFF7F3FA02468E
:101318007B6AD31A022B01D903233DE2334B1B68A6
:1013280003F48073002BF0D17B681B6803F008037B
:10133800002B36D07B685B69002B19D02B4B5B6F79
:101348002A4A43F001035367FFF7D4FA786208E0AA
:10135800FFF7D0FA02467B6AD31A022B01D903237E
:101368001AE2224B5B6F03F00203002BF0D018E067
:101378001E4B5B6F1D4A23F001035367FFF7BAFA50
:10138800786208E0FFF7B6FA02467B6AD31A022BA6
:1013980001D9032300E2154B5B6F03F00203002B16
:1013A800F0D17B681B6803F02003002B39D07B68E1
:1013B8009B69002B1CD00D4B1B680C4A43F48053CF
:1013C8001360FFF797FA786208E0FFF793FA02468E
:1013D8007B6AD31A022B01D90323DDE1034B1B6877
:1013E80003F40053002BF0D01BE000BF0044025868
:1013F8009B4B1B689A4A23F480531360FFF77AFAD1
:10140800786208E0FFF776FA02467B6AD31A022B65
:1014180001D90323C0E1924B1B6803F40053002B4E
:10142800F0D17B681B6803F00403002B00F0818077
:101438008C4B1B688B4A43F480731360FFF75AFA8E
:10144800786208E0FFF756FA02467B6AD31A642BE3
:1014580001D90323A0E1834B1B6803F48073002B9D
:10146800F0D07B689B68012B06D17D4B1B6F7C4AB3
:1014780043F0010313672DE07B689B68002B0CD1B8
:10148800774B1B6F764A23F001031367744B1B6F6E
:10149800734A23F0040313671CE07B689B68052BE1
:1014A8000CD16F4B1B6F6E4A43F0040313676C4BF0
:1014B8001B6F6B4A43F0010313670BE0684B1B6F0C
:1014C800674A23F001031367654B1B6F644A23F0D7
:1014D800040313677B689B68002B15D0FFF70AFA93
:1014E80078620AE0FFF706FA02467B6AD31A41F2ED
:1014F8008832934201D903234EE1594B1B6F03F005
:101508000203002BEED014E0FFF7F4F978620AE04A
:10151800FFF7F0F902467B6AD31A41F28832934208
:1015280001D9032338E14E4B1B6F03F00203002B54
:10153800EED17B685B6A002B00F02D81484B1B695C
:1015480003F03803182B00F0BD807B685B6A022B20
:1015580040F09E80424B1B68414A23F08073136021
:10156800FFF7C8F9786208E0FFF7C4F902467B6A1A
:10157800D31A022B01D903230EE1394B1B6803F060
:101588000073002BF0D1364B9A6A374B13407A68B8
:10159800916A7A68D26A12010A43314913438B620D
:1015A8007B681B6B013BC3F308027B685B6B013BE9
:1015B8005B029BB21A437B689B6B013B1B0403F4E1
:1015C800FE031A437B68DB6B013B1B0603F0FE43FB
:1015D800234913430B63224BDB6A214A23F001039F
:1015E800D3621F4B5A6B214B13407A68926CD2001E
:1015F8001B4913434B631A4BDB6A23F00C027B68CD
:101608001B6C17491343CB62154BDB6A23F00202AC
:101618007B685B6C12491343CB62114BDB6A104A3F
:1016280043F48033D3620E4BDB6A0D4A43F4003334
:10163800D3620B4BDB6A0A4A43F48023D362084B1C
:10164800DB6A074A43F00103D362054B1B68044A6F
:1016580043F080731360FFF74DF9786211E000BF23
:1016680000440258004802580CFCFFFF0700FFFF27
:10167800FFF740F902467B6AD31A022B01D90323EC
:101688008AE0474B1B6803F00073002BF0D082E020
:10169800434B1B68424A23F080731360FFF72AF913
:1016A800786208E0FFF726F902467B6AD31A022B14
:1016B80001D9032370E03A4B1B6803F00073002B39
:1016C800F0D168E0364B9B6A3B61354B1B6BFB6086
:1016D8007B685B6A012B31D03B6903F003027B68AE
:1016E8009B6A9A422AD13B691B0903F03F027B6837
:1016F800DB6A9A4222D1FB68C3F308027B681B6B42
:10170800013B9A421AD1FB685B0A03F07F027B68AF
:101718005B6B013B9A4211D1FB681B0C03F07F0203
:101728007B689B6B013B9A4208D1FB681B0E03F058
:101738007F027B68DB6B013B9A4201D001232BE0DF
:10174800174B5B6BDB08C3F30C033B617B689B6C3B
:101758003A699A421FD0124BDB6A114A23F00103FF
:10176800D362FFF7C7F8786200BFFFF7C3F80246F5
:101778007B6A9342F9D00A4B5A6B0A4B13407A683A
:10178800926CD200064913434B63054BDB6A044A4B
:1017980043F00103D362002318463037BD4680BDAD
:1017A800004402580700FFFF80B586B000AF78609C
:1017B80039607B68002B01D101239CE18A4B1B68AF
:1017C80003F00F033A689A4210D9874B1B6823F03D
:1017D8000F0285493B6813430B60834B1B6803F07A
:1017E8000F033A689A4201D0012384E17B681B68A1
:1017F80003F00403002B10D07B681A697B4B9B69AC
:1018080003F070039A4208D9784B9B6923F0700261
:101818007B681B69754913438B617B681B6803F000
:101828000803002B10D07B685A69704BDB6903F002
:1018380070039A4208D96D4BDB6923F070027B680C
:101848005B696A491343CB617B681B6803F010032B
:10185800002B10D07B689A69644BDB6903F4E06362
:101868009A4208D9614BDB6923F4E0627B689B6983
:101878005E491343CB617B681B6803F02003002B90
:1018880010D07B68DA69594B1B6A03F070039A42DF
:1018980008D9564B1B6A23F070027B68DB695349F1
:1018A80013430B627B681B6803F00203002B10D004
:1018B8007B68DA684D4B9B6903F00F039A4208D99D
:1018C8004A4B9B6923F00F027B68DB684749134347
:1018D8008B617B681B6803F00103002B55D0434BD9
:1018E8009B6923F470627B689B68404913438B6152
:1018F8007B685B68022B07D13C4B1B6803F4003301
:10190800002B21D10123F6E07B685B68032B07D10C
:10191800364B1B6803F00073002B15D10123EAE056
:101928007B685B68012B07D1304B1B6803F480731D
:10193800002B09D10123DEE02C4B1B6803F00403C4
:10194800002B01D10123D6E0284B1B6923F00702A5
:101958007B685B68254913430B61FEF7CBFF786111
:101968000AE0FEF7C7FF02467B69D31A41F28832C4
:10197800934201D90323BEE01C4B1B6903F03802D4
:101988007B685B68DB009A42EBD17B681B6803F0DD
:101998000203002B10D07B68DA68144B9B6903F0B4
:1019A8000F039A4208D2114B9B6923F00F027B6800
:1019B800DB680E4913438B610B4B1B6803F00F0365
:1019C8003A689A4214D2084B1B6823F00F02064962
:1019D8003B6813430B60044B1B6803F00F033A6822
:1019E8009A4205D0012386E00020005200440258A4
:1019F8007B681B6803F00403002B10D07B681A690E
:101A08003F4B9B6903F070039A4208D23C4B9B6999
:101A180023F070027B681B69394913438B617B682B
:101A28001B6803F00803002B10D07B685A69344BFD
:101A3800DB6903F070039A4208D2314BDB6923F06B
:101A480070027B685B692E491343CB617B681B6816
:101A580003F01003002B10D07B689A69284BDB69D0
:101A680003F4E0639A4208D2254BDB6923F4E06271
:101A78007B689B6922491343CB617B681B6803F031
:101A88002003002B10D07B68DA691D4B1B6A03F01A
:101A980070039A4208D21A4B1B6A23F070027B68C3
:101AA800DB69174913430B6200F034F80246144B04
:101AB8009B691B0A03F00F031249CB5C03F01F0359
:101AC80022FA03F33B610E4B9B6903F00F030D4AA7
:101AD800D35C03F01F033A6922FA03F30A4A13603E
:101AE8000A4A3B6913600A4B1B681846FEF7B8FEA2
:101AF8000346FB73FB7B18461837BD4680BD00BF05
:101B080000440258801E000804000024000000243D
:101B18000800002480B489B000AFB34B1B6903F000
:101B28003803182B00F2558101A252F823F000BFA8
:101B38009D1B0008DB1D0008DB1D0008DB1D0008DD
:101B4800DB1D0008DB1D0008DB1D0008DB1D00088D
:101B5800C31B0008DB1D0008DB1D0008DB1D000897
:101B6800DB1D0008DB1D0008DB1D0008DB1D00086D
:101B7800C91B0008DB1D0008DB1D0008DB1D000871
:101B8800DB1D0008DB1D0008DB1D0008DB1D00084D
:101B9800CF1B0008944B1B6803F02003002B09D0CF
:101BA800914B1B68DB0803F00303904A22FA03F306
:101BB800BB6111E18D4BBB610EE18D4BBB610BE14C
:101BC8008C4BBB6108E1884B9B6A03F003037B6184
:101BD800854B9B6A1B0903F03F033B61824BDB6A21
:101BE80003F00103FB60804B5B6BDB08C3F30C0362
:101BF800FA6802FB03F307EE903AF8EE677AC7ED4E
:101C0800027A3B69002B00F0E1807B69022B00F02F
:101C180083807B69022B00F2A1807B69002B03D0B3
:101C28007B69012B56D099E06F4B1B6803F02003AA
:101C3800002B2DD06C4B1B68DB0803F003036B4AA9
:101C480022FA03F37B607B6807EE903AF8EE676A46
:101C58003B6907EE903AF8EE677A86EEA77A624B10
:101C68001B6BC3F3080307EE903AF8EE676A97ED2B
:101C7800026ADFED615AC6EE257A76EEA77AF7EEAC
:101C8800006A77EEA67A67EE277AC7ED077A87E0CB
:101C98003B6907EE903AF8EE677ADFED586A86EE10
:101CA800A77A514B1B6BC3F3080307EE903AF8EE83
:101CB800676A97ED026ADFED505AC6EE257A76EE2E
:101CC800A77AF7EE006A77EEA67A67EE277AC7ED6D
:101CD800077A65E03B6907EE903AF8EE677ADFED40
:101CE800486A86EEA77A404B1B6BC3F3080307EEDE
:101CF800903AF8EE676A97ED026ADFED3F5AC6EE52
:101D0800257A76EEA77AF7EE006A77EEA67A67EE7E
:101D1800277AC7ED077A43E03B6907EE903AF8EE79
:101D2800677ADFED386A86EEA77A2F4B1B6BC3F311
:101D3800080307EE903AF8EE676A97ED026ADFED5E
:101D48002E5AC6EE257A76EEA77AF7EE006A77EE77
:101D5800A67A67EE277AC7ED077A21E03B6907EE96
:101D6800903AF8EE677ADFED266A86EEA77A1E4B80
:101D78001B6BC3F3080307EE903AF8EE676A97ED1A
:101D8800026ADFED1D5AC6EE257A76EEA77AF7EEDF
:101D9800006A77EEA67A67EE277AC7ED077A00BF62
:101DA800114B1B6B5B0A03F07F0301333B603B68FD
:101DB80007EE903AB8EE677AD7ED076AC6EE877AEB
:101DC800FCEEE77A17EE903ABB6105E00023BB61B1
:101DD80002E0074BBB6100BFBB6918462437BD460C
:101DE8005DF8047B704700BF004402580090D003A0
:101DF80000093D0040787D01000000460024744C35
:101E08000024744A20BCBE4B02440346934200D1CE
:101E1800704703F8011BF9E770B50D4D0D4C641BB5
:101E2800A4100026A64209D10B4D0C4C00F018F85E
:101E3800641BA4100026A64205D170BD55F8043BCA
:101E480098470136EEE755F8043B98470136F2E724
:101E5800901E0008901E0008901E0008941E00089E
:101E6800F8B500BFF8BC08BC9E467047F8B500BF7F
:081E7800F8BC08BC9E4670474F
:101E80000000000001020304010203040607080920
:041E9000BD02000887
:041E940099020008A7
:101E98000090D0030090D003100000000100000063
:040000050800079D4B
:00000001FF
